:100000000C9458070C949F070C949F070C949F071F
:100010000C949F070C949F070C949F070C949F07C8
:100020000C949F070C949F070C9454300C94283127
:100030000C94CA210C949F070C949F070C949F0763
:100040000C949F070C949F070C949F070C949F0798
:100050000C949F070C9421220C949F070C949F07EB
:100060000C949F070C949F070C949F070C949F0778
:100070000C949F070C949F070C949F070C949F0768
:100080000C949F070C949F070C949F070C949F0758
:100090000C94A2140C949F070C949F070C949F0738
:1000A0000C949F070C949F070C949F070000290055
:1000B0003500000030003200E200E0001E001400B5
:1000C00004001D001F001A0016001B00200008007D
:1000D0000700060021001500090019002200170082
:1000E0000A0005004D004E004A004B003900015146
:1000F000E1002C0000004C002B00000000008900F3
:100100002E0000002D002F00340087002700130070
:1001100033003800260012000F00370025000C00C5
:100120000E003600240018000D00100023001C00F3
:100130000B001100500051004F00520088001003C6
:10014000E5002A000000490028000000000001002E
:10015000E300000001000100010001003A0001007D
:10016000010001003B000100010001003C00010012
:10017000010001003D000100010001003E000100FE
:100180000100010001000100010001000100010067
:10019000010001000000010001000000000001005A
:1001A0000100000001000100010001004300010006
:1001B00001000100420001000100010041000100B6
:1001C0000100010040000100010001003F000100AA
:1001D0000100010001000100010001000100010017
:1001E000010001000000010001000000000001000A
:1001F00001000000010001000100010001000100F8
:1002000001000100010001000100010001000100E6
:1002100001000100010001000100010001000100D6
:1002200001000100010001000100010001000100C6
:1002300001000100000001000100000000000100B9
:1002400001000000010001000100010001000100A7
:100250000100010001000100010001000100010096
:100260000100010001000100010001000100010086
:100270000100010001000100010001000100010076
:100280000100010000000100010000000000010069
:100290000100000001000100010001000100010057
:1002A0000100010001000100010001000100010046
:1002B0000100010001000100010001000100010036
:1002C0000100010001000100010001000100010026
:1002D0000100010000000100010000000000010019
:1002E0000100000001000100010001000100010007
:1002F00001000100010001000100010001000100F6
:1003000001000100010001000100010001000100E5
:1003100001000100010001000100010001000100D5
:1003200001000100000001000100000044454255A9
:10033000473A2064697361626C65642E0A00444523
:100340004255473A20656E61626C65642E0A000072
:10035000000000000000002A2B2800000000000020
:100360000000000000000000000029000000002C38
:100370001E3420212224342627252E362D373827D7
:100380001E1F202122232425263333362E37381FE3
:100390000405060708090A0B0C0D0E0F10111213A5
:1003A0001415161718191A1B1C1D2F3130232D3543
:1003B0000405060708090A0B0C0D0E0F1011121385
:1003C0001415161718191A1B1C1D2F3130354C0027
:1003D000000000000000000000000000000000001D
:1003E0000000007E0F00D4FFFFFFC7000000780A66
:1003F0000025303862003A200025303258000A7259
:100400002F632030313233343536370A000A002565
:1004100030325820006B6579626F6172645F72657B
:10042000706F72743A20000A0025303258006B65F4
:1004300079626F6172645F7365745F6C65643A20A2
:1004400000290A002575002F002575005D2800256C
:10045000640020002564002000256400200025643D
:10046000007C0025303258006D6F7573656B6579BF
:10047000205B62746E7C782079207620685D28721B
:1004800065702F61636C293A205B006D6B5F776844
:1004900065656C5F74696D655F746F5F6D61782011
:1004A0003D2025640A006D6B5F776865656C5F6D44
:1004B00061785F7370656564203D2025640A006D76
:1004C0006B5F74696D655F746F5F6D6178203D204F
:1004D00025640A006D6B5F6D61785F73706565649C
:1004E000203D2025640A006D6B5F696E746572762D
:1004F000616C203D2025640A006D6B5F64656C6152
:1005000079203D2025640A006D6B5F776865656C16
:100510005F74696D655F746F5F6D6178203D202544
:10052000640A006D6B5F776865656C5F6D61785F0D
:100530007370656564203D2025640A006D6B5F74EF
:10054000696D655F746F5F6D6178203D2025640A79
:10055000006D6B5F6D61785F7370656564203D2031
:1005600025640A006D6B5F696E74657276616C203C
:100570003D2025640A006D6B5F64656C6179203DE8
:100580002025640A000A00257500363A2077686540
:10059000656C5F74696D655F746F5F6D61783A203B
:1005A000000A00257500353A20776865656C5F6D37
:1005B00061785F73706565643A20000A00257500F4
:1005C000343A2074696D655F746F5F6D61783A20AD
:1005D000000A00257500333A206D61785F737065FD
:1005E00065643A20000A00257500323A20696E746D
:1005F000657276616C286D73293A20000A002575B2
:1006000000313A2064656C6179282A31306D732994
:100610003A20000A092D2056616C756573202D0A59
:10062000004D3E004D25643E20003F007365742060
:1006300064656661756C740A00433E2000776865E6
:1006400072652064656C74613A20637572736F72B1
:100650003D25642C20776865656C3D25640A5365EB
:100660006520687474703A2F2F656E2E77696B69F8
:1006700070656469612E6F72672F77696B692F4DA2
:100680006F7573655F6B6579730A000A092D204DDC
:100690006F7573656B6579202D0A4553432F713A49
:1006A00009717569740A313A0964656C6179282A9F
:1006B00031306D73290A323A09696E746572766158
:1006C0006C286D73290A333A096D61785F73706520
:1006D00065640A343A0974696D655F746F5F6D61B2
:1006E000780A353A09776865656C5F6D61785F7384
:1006F000706565640A363A09776865656C5F746988
:100700006D655F746F5F6D61780A0A703A09707287
:10071000696E742076616C7565730A643A09736555
:10072000742064656661756C74730A75703A092B80
:10073000310A646F776E3A092D310A706775703A25
:10074000092B31300A7067646F776E3A092D3130AA
:100750000A0A7370656564203D2064656C746120CD
:100760002A206D61785F7370656564202A20287285
:100770006570656174202F2074696D655F746F5FAB
:100780006D6178290A003F004D3E2000433E200065
:100790004C25640A0074696D65725F72656164332B
:1007A0003228293A202530346C580A006B6579626A
:1007B0006F6172645F69646C653A2025580A006B4A
:1007C0006579626F6172645F70726F746F636F6C72
:1007D0003A2025580A00686F73745F6B6579626F01
:1007E0006172645F6C65647328293A2025580A0099
:1007F0000A092D20537461747573202D0A00474334
:10080000433A20382E342E30204156522D4C494246
:10081000433A20322E302E30204156525F4152430F
:10082000483A20617672350A004F5054494F4E5372
:100830003A204C554641204D4F5553454B45592084
:1008400045585452414B455920434F4E534F4C4508
:1008500020434F4D4D414E4420343039360A00423A
:1008600055494C443A2022302E362E3436332D331F
:100870003431302D673763613135362D64697274D8
:100880007922202831333A35373A33392041756798
:100890002031302032303232290A005649443A2081
:1008A00030784645454428736174726F6D6929201C
:1008B0005049443A2030783837373428746C737094
:1008C0006C6974313829205645523A2030783030DE
:1008D00030310A000A092D2056657273696F6E2047
:1008E0002D0A000A092D20436F6E736F6C65202D51
:1008F0000A4553432F713A09717569740A6D3A09B3
:100900006D6F7573656B65790A000A092D204D615D
:10091000676963202D0A443A094465627567204D72
:1009200065737361676520546F67676C650A583A31
:10093000094D6174726978204465627567204D6F56
:10094000646520546F67676C65202D2053686F774E
:10095000206B65797072657373657320696E206DA5
:10096000617472697820677269640A4B3A094B6551
:1009700079626F61726420446562756720546F67A5
:10098000676C65202D2053686F77206B65797072D6
:10099000657373207265706F72740A4D3A0944650D
:1009A000627567204D6F75736520546F67676C655E
:1009B0000A563A0956657273696F6E0A533A0953BB
:1009C00074617475730A433A09416374697661749A
:1009D0006520436F6E736F6C65204D6F64650A46CA
:1009E000312D4631303A0953776974636820746F4A
:1009F000204C6179657220302D3920284631302015
:100A00003D204C30290A302D393A095377697463F7
:100A10006820746F204C6179657220302D390A4747
:100A2000524156453A0953776974636820746F20C0
:100A30004C6179657220302028616C7465726E613A
:100A40007465290A423A094A756D7020746F204214
:100A50006F6F746C6F616465720A4553433A094A5B
:100A6000756D7020746F20426F6F746C6F61646578
:100A7000722028616C7465726E617465290A453A4A
:100A8000095072696E7420454550524F4D20536590
:100A90007474696E67730A4253504143453A09437F
:100AA0006C65617220454550524F4D0A000A002581
:100AB00075002E6E6B726F3A20000A002575002EAD
:100AC000737761705F6261636B736C6173685F629F
:100AD00061636B73706163653A20000A00257500DD
:100AE0002E737761705F67726176655F6573633AD5
:100AF00020000A002575002E6E6F5F6775693A2029
:100B0000000A002575002E737761705F72616C7446
:100B10005F726775693A20000A002575002E7377A9
:100B200061705F6C616C745F6C6775693A20000A74
:100B3000002575002E737761705F7263746C5F724D
:100B40006775693A20000A002575002E7377617079
:100B50005F6C63746C5F6C6775693A20000A0025EE
:100B600075002E636170736C6F636B5F746F5F638E
:100B70006F6E74726F6C3A20000A002575002E7338
:100B80007761705F636F6E74726F6C5F63617073B7
:100B90006C6F636B3A20000A0025303258006B6599
:100BA000796D61705F636F6E6669672E7261773A07
:100BB00020000A002575002E6D6F7573653A2000C0
:100BC0000A002575002E6B6579626F6172643A20A8
:100BD000000A002575002E6D61747269783A200054
:100BE0000A002575002E656E61626C653A20000A68
:100BF00000253032580064656275675F636F6E660A
:100C000069672E7261773A20000A002575006465D5
:100C10006661756C745F6C617965723A20003F00A3
:100C20000A6D6F7573653A206F66660A000A6D6F0C
:100C30007573653A206F6E0A000A6B6579626F61A1
:100C400072643A206F66660A000A6B6579626F61AA
:100C500072643A206F6E0A000A6D61747269783AA4
:100C6000206F66660A000A6D61747269783A206FB7
:100C70006E0A000A64656275673A206F66660A004C
:100C80000A64656275673A206F6E0A000A0A4A753F
:100C90006D70696E6720746F20626F6F746C6F6126
:100CA0006465722E2E2E2000433E2000436C656149
:100CB00072696E6720454550524F4D0A0065656365
:100CC0006F6E6669673A0A005B735D004B65796217
:100CD0006F6172642073746172742E0A005B575DD9
:100CE000005B535D005B525D005B445D005B435DF8
:100CF00000140374006C00730070006C00690074D1
:100D000000310038000000100373006100740072AD
:100D1000006F006D00690000000403090409027BF4
:100D200000040100A0FA0904000001030101000908
:100D300021110100012240000705810308000A0972
:100D40000401000203000000092111010001222218
:100D500000070582032000010705030320000109A5
:100D60000402000103000000092111010001228199
:100D7000000705840320000A0904030002030000A1
:100D8000000921110100012222000705850320002E
:100D900001070505032000011201100100000008F1
:100DA000EDFE74870100010200010631FF0974A104
:100DB000010975150026FF00952075088102097646
:100DC000150026FF00952075089102C00660FF09F6
:100DD00061A1010962150026FF00952075088102B6
:100DE0000963150026FF00952075089102C00501D2
:100DF0000902A10185020901A100050919012905BE
:100E00001500250195057501810295017503810184
:100E10000501093009311581257F95027508810684
:100E200009381581257F950175088106050C0A385A
:100E3000021581257F950175088106C0C00501094D
:100E400080A101850319012AB700150126B7009575
:100E50000175108100C0050C0901A101850419016B
:100E60002AA002150126A002950175108100C00577
:100E7000010906A101050719E029E71500250195DB
:100E8000087501810295017508810105071900297E
:100E9000FF150026FF009506750881000508190159
:100EA0002905950575019102950175039101C00011
:100EB00011241FBECFEFDAE0DEBFCDBF04B603FEC4
:100EC00027C08091CF029091D002A091D102B09121
:100ED000D2028730904BA740B04BD1F41092CF0292
:100EE0001092D0021092D1021092D20214BE84B796
:100EF000877F84BF0FB6F894A895809160008861C1
:100F000080936000109260000FBEE0E0F8E3099566
:100F100011E0A0E0B1E0E2E3F7E602C005900D9237
:100F2000AE3AB107D9F722E0AEEAB1E001C01D92B6
:100F3000AF3CB207E1F70E940E2D0C945C330C9489
:100F40000000FF93EF93E091AE01F091AF01309775
:100F500009F00995EF91FF910895FC01859180308A
:100F600011F0EFDFFBCF0895FF27E0E230E247FF0B
:100F70000CC0419597FF09C0EDE260957095809592
:100F80009095611D711D811D911D27FF02C0219546
:100F900030E350E2AA27660F771F881F991FAA1F08
:100FA000A41710F0A41B63955A95A9F7AA3008F06E
:100FB000A95FA05DAF93F39561157105810591055A
:100FC00041F7ED3211F4EF93F395F21718F43F93D4
:100FD000F395FBCF8F91B5DFFA95E1F70895E9918D
:100FE000F9918591803021F0853219F0AADFF9CF8F
:100FF000089520E0E89455915532C1F3503311F42F
:10100000689455915A3348F4505390F3220F022EAE
:10101000220F220F200D250FF4CF0EF42195899178
:101020009991533619F3533729F1533559F1BC01CE
:1010300088279927E8945C3621F4899199916894DE
:101040005591543639F446EF7EF077FF0DC08FEF9F
:101050009FEF0AC055374AE039F0583540E121F09A
:10106000523642E009F00895FF93EF937DDFEF9150
:10107000FF91B7CFFF93EF93FC0181918030B9F3DB
:1010800060DFFBCFFF93EF9368DFF1CFDF93CF9368
:10109000CDB7DEB72596A3DFCF91DF91089581E02C
:1010A000089581E008950C94510808950C94550812
:1010B0001F93CF93DF9300D000D00F92CDB7DEB750
:1010C00049835A836B833091D60189819A8131118A
:1010D0001DC06623B9F02223A9F00E94111F182F0A
:1010E000682F89819A810E94BE1E69817A81812F31
:1010F0000F900F900F900F900F90DF91CF911F9155
:101100000C947F100E94EA1E182FEFCF0E94111F2F
:1011100069817A81EDCFFC01262F40815181628166
:10112000738184810C945808CF93DF93EC0160E0C5
:101130000E948B08BE01DF91CF910C945608FF925C
:101140000F931F93CF93DF93E82FF0E0E15BFC4F09
:10115000F490C82FC695C695C695D0E0FE01E15221
:10116000FC4F0491877010E0082E02C0159507957A
:101170000A94E2F701701127C153DC4FFE01C491BC
:10118000D0E002C0D595C7958A95E2F7C170DD27FA
:101190000115110519F081EE0E94A916209719F08A
:1011A00086EE0E94A9168F2D0E949617CD2B19F05E
:1011B00086EE0E944017012B41F081EEDF91CF9126
:1011C0001F910F91FF900C944017DF91CF911F91C9
:1011D0000F91FF900895EF92FF920F931F93CF937B
:1011E000DF93EC01162F0AE08881882309F454C0AC
:1011F000813009F04EC08981813099F47E0122E06E
:10120000E20EF11C8A810E949617E7012196812F38
:10121000815050F3EFE9FFE03197F1F700C0000093
:10122000F7CF823041F47E0182E0E80EF11C8A8122
:101230000E94A916EACF833041F47E01E2E0EE0E6F
:10124000F11C8A810E944017E0CF843011F0219672
:10125000DDCF2A81229690E080E0AE014F5F5F4FA4
:101260002053330B2A30310548F0019778F2EFE92B
:10127000FFE03197F1F700C00000F7CF089FB00101
:10128000099F700D1124C901860F971F2981EA015A
:10129000E4CF0E949F08BACFDF91CF911F910F91A9
:1012A000FF90EF90089560E00C94EB088F929F926E
:1012B000AF92BF92CF92DF92EF92FF920F931F9364
:1012C0006B017C0181E090E0A0E0B0E04C015D01A9
:1012D00004C0880C991CAA1CBB1C4A95D2F7B50106
:1012E000A4014C015D0104C0880C991CAA1CBB1C04
:1012F0002A95D2F7482959296A297B2904C0880FE1
:10130000991FAA1FBB1F0A95D2F78A019B010C21C6
:101310001D212E213F21041715072607370789F4C1
:101320008C299D29AE29BF29BC01CD011F910F91A8
:10133000FF90EF90DF90CF90BF90AF909F908F90F5
:10134000089580959095A095B0958C219D21AE2112
:10135000BF21EACF0F93382F262F60914102709161
:1013600042028091430290914402042F432F0E9435
:1013700056090F910C94FC1D0E9458220E9478205F
:10138000811102C00E941C210C943B0C0C943E0C59
:1013900008950E94251A0E94C8092FEF84E39CE05B
:1013A000215080409040E1F700C000000C9445229D
:1013B0000F931F93CF93DF93EC0161E00E948B08A2
:1013C0008C01BE010E94B50E882341F1BE01C80107
:1013D0000E945308882311F1BE01C8010E94D51153
:1013E0008823E1F0BE01C8010E9427128823B1F0D2
:1013F000BE01C8010E944A13882381F08A81882394
:1014000041F101308CE5180779F00F3D8CE51807A4
:10141000E9F001151C45E9F40E94C90980E0DF915B
:10142000CF911F910F91089590915602892F8E7F31
:1014300090FF81608093560280FF05C08EE393E0A9
:101440000E94AD07EBCF8CE293E0FACF0E941C2103
:10145000E5CFCE01DF91CF911F910F910C944F08F2
:1014600008950C94300A81E008950C94330ACF93C8
:10147000C82F0E94310A8C2FCF910C94350A90E02E
:1014800080E008950895FC01EE0FFF1FE151FC4F2D
:10149000859194910895CF93DF930E947F100E94CD
:1014A000600BEC01811520E5920708F042C0811520
:1014B00030E4930708F0BDC0883E910528F5803ED2
:1014C000910508F09DC0883A910588F4853A910508
:1014D00008F08FC08130910509F492C0009709F49B
:1014E0008FC0049708F08CC0D0E0C0E089C08F3B6B
:1014F000910508F489C0805C9109C03CD105A0F336
:101500000E94430AEC017CC08115904250F4C11541
:1015100081E0D80708F074C0C03FD10528F3D0653A
:101520006FC0C11590E3D90708F079C0CE019F7054
:10153000E7CF811525E5920758F5811534E5930726
:1015400008F0A6C0811542E5940750F4C11581E565
:10155000D80708F471C0DC2FCC27C16FD06A50C007
:10156000982F969596959E0123703327C115D345E4
:1015700008F07FC0C1E0D0E002C0CC0FDD1F2A958B
:10158000E2F720E2929FC0011124C82BD92B6FC033
:10159000C11589E5D807A8F4C11598E5D90708F061
:1015A0007CC0C11526E5D20708F09ECF8C2F0E9483
:1015B000F70BC82FD0E0DC2FCC27CC27DF71D0620F
:1015C0001FC0C1153AE5D30708F46CC0CE01905690
:1015D0008115904208F088CF8D2F8F710E94F70BF4
:1015E00090E0982F882788279F719C012C2BE90178
:1015F000E6CFC55AD0E0C45ADE4FC881D0E0D064EF
:10160000CE01DF91CF910895C85AD0E0CC0FDD1FF5
:10161000C25DDE4F0990D881C02DD464F1CFCE01D8
:101620009927D3FF03C0EC01D86CEACFEC01D06C52
:10163000E7CFDF70D06AE4CFCE01E4E096958795DE
:10164000EA95E1F783702C2F26952695237090E27A
:10165000299F90011124382B8C2F8370C1E0D0E09A
:1016600002C0CC0FDD1F8A95E2F7C22BD32BDC68BA
:10167000C7CFC1E0D0E002C0CC0FDD1F2A95E2F752
:1016800030E2939FC0011124C82BD92BDA68B8CF60
:10169000D82FCC27C46FD06AB3CFDC2FCC27C06F34
:1016A000D06AAECF8C2F8F700E94F70B34E0D695A6
:1016B000C7953A95E1F7CF709C2FEC01D069A0CF88
:1016C00082389105B1F1B0F48133910509F475C008
:1016D00048F48932910509F469C08A32910509F408
:1016E00073C008958533910509F459C08933910574
:1016F00001F10895833E9105A9F138F4803E9105EA
:10170000F9F0823E910549F10895863E9105A9F1CF
:10171000873E9105C9F1843E910519F52091C102DA
:1017200021FF1FC08091C00284FD14C087EE90E0AD
:1017300008952091C0022370A1F080EE90E00895FA
:101740002091C00220FD47C03091C10230FF09C086
:1017500024FF44C090E080E004C02091C00222FD3C
:10176000F7CF08952091C00222FD3BC03091C10205
:1017700030FDE3CF24FFF5CFEDCF2091C00223FF52
:10178000F0CF24FDE7CFD2CF2091C00223FD2CC0A3
:101790003091C10231FFEECF84EE90E008952091A8
:1017A000C00225FFDECF89E290E008952091C002BB
:1017B00025FFD7CF85E390E008952091C00226FF52
:1017C000D0CF8AE290E008952091C00226FFC9CFD1
:1017D00081E390E0089589E390E0089583EE90E03E
:1017E000089582EE90E0089586EE90E0089590913D
:1017F000C00292FF06C0282F28712830F9F4877F95
:10180000846093FF06C0282F28712831F1F4877E69
:1018100084612091C10220FF06C0382F3871383012
:10182000D9F4877F816021FF06C0282F28712831D5
:10183000D1F4877E816194FD877E0895282F2471DD
:101840002430F9F68B7F8860DCCF282F2471243177
:1018500001F78B7E8861DDCF382F3171313019F778
:101860008E7F8860E0CF282F2171213121F78E7E75
:101870008861E1CF08950C943A0C08950C943D0CC6
:10188000E82FF0E0E857FD4F80810895CF92DF9276
:10189000EF92FF920F931F93CF93DF938EEF93E01E
:1018A0000E94AD0788E8E82E82E0F82ED0E0C0E084
:1018B00099EFC92E93E0D92E01EF13E0DF93CF9378
:1018C000DF92CF920E94460886EF93E00E94AD0718
:1018D000F70181917F010E945A201F928F931F93DD
:1018E0000F930E9446088FEE93E00E94AD07219669
:1018F0008DB79EB708960FB6F8949EBF0FBE8DBFEA
:10190000C431D105D9F6DF91CF911F910F91FF908E
:10191000EF90DF90CF90089580EA8A95F1F70895CF
:10192000F894E82FE295EF70F0E031A1282F2F70A6
:1019300081E090E001C0880F2A95EAF7982F9095F2
:10194000932391A392A1892B82A37894089508955B
:10195000EF92FF920F931F93CF93DF93CDB7DEB734
:1019600064970FB6F894DEBF0FBECDBF0E94300E55
:1019700080911801811131C0FE013B968AE0DF01A0
:101980001D928A95E9F786EF898387EF8A8381E341
:101990008B8383E38C8382E38D8386E38E8385E36D
:1019A0008F8385EF888784EF898784E38A873A97D6
:1019B000A4E0B1E0CE01459621912D93E817F907F7
:1019C000D9F786EC8093000187E98093010186E6D0
:1019D0008093020184E980930301809118019AE0C9
:1019E000811190E090939D028AE0891B80939C0274
:1019F00004E011E0F80181918F010E94900CF1E068
:101A00000E301F07B9F700E011E084E0E82E81E016
:101A1000F82ED8018D918D010E94900CE016F106F0
:101A2000C1F7E4E7F2E0A8E8B2E011921D9282E08B
:101A3000E838F807D1F78AE00E94DB0D0E94BC0964
:101A400064960FB6F894DEBF0FBECDBFDF91CF9185
:101A50001F910F91FF90EF900C943A0E0E94120E7E
:101A6000882309F180919C0290E088579D4F0E9445
:101A7000410E811115C08091B0018F5F8093B0013C
:101A8000863060F0E0919C02F0E0E857FD4F90E076
:101A900080E0119201968A309105D9F70C94C6091D
:101AA0001092B001FBCF80919D0290E088579D4F2E
:101AB0000E94500E0C94A70CAF92BF92CF92DF926F
:101AC000EF92FF920F931F93CF93DF93C4E0D1E087
:101AD00004E712E08EE0C82E81E0D82EB12CEE246F
:101AE000E394F12C8991F894E82FE295EF70F0E0FF
:101AF00021A18F70A70102C0440F551F8A95E2F7FC
:101B0000CA01922F982B91A392A18095892382A339
:101B100078940E948C0CE0E0F1E030E020E0A12C11
:101B20004191A42FA295AF70B0E090968C9190E077
:101B30004F7002C0959587954A95E2F780FD37C0B2
:101B40008E2D022E01C0880F0A94EAF7A82A2F5F73
:101B50003F4F2430310521F7FE01319780810E94EB
:101B6000900CF8018081A81621F1A08281E0B82AAA
:101B70000F5F1F4FCC16DD0609F0B4CF60919D02B8
:101B800070E068577D4F2B2D4AE084E792E00E9479
:101B9000DC0D0E942E0D8B2DDF91CF911F910F91A7
:101BA000FF90EF90DF90CF90BF90AF90089580E0CE
:101BB000CDCF80E0DCCF0895FF920F931F93CF939A
:101BC000DF93F82E092F162FD72FC42F222349F089
:101BD00081E08093B3010E94FA219093B201809337
:101BE000B1018091B3018823A1F08091B10190915E
:101BF000B2010E941222069760F0EF2DF02FA12F64
:101C0000BD2FCE0FDF2FD11DEC17FD0741F4109231
:101C1000B301DF91CF911F910F91FF9008958191B2
:101C20008D93F2CF8091B401811111C08091D800C1
:101C300080618093D8008AE18A95F1F700C0909185
:101C4000D900892F817090FF82E08093B40181E0F8
:101C50009091B401913009F080E008950C94120E37
:101C60000E942E0E809318010E94120E81110C9476
:101C7000590E08950E94120E811102C00C945B0E41
:101C800008950F931F9304E610E02AE030E0AC01C2
:101C900060E082E30E944D1481E01F910F9108954E
:101CA000FC019AE0AEE9B2E001900D929A95E1F75D
:101CB00008950C94741382E30C949C1482E290E0D7
:101CC0000E941A33823289F483E290E00E941A3330
:101CD000883059F484E290E00E941A3391E0803118
:101CE00009F090E0892F8170089580E0FCCFCF93B8
:101CF000C82F6FEF811162E282E290E00E942833E8
:101D00006FEFC11168E083E290E00E9428336FEF2B
:101D1000C11160E184E290E0CF910C94283380E01F
:101D20000E94770E0C947220089585E290E00E9444
:101D30001A33682F70E090E080E0089585E290E02B
:101D40000C9428330E94940E0E945E0E81110CC0E8
:101D500060E070E0CB010E949E0E0E94F70F0E948F
:101D6000E31081E00C94770E0895CF93FB01C281BC
:101D7000CC2309F19C0122513F452031310520F54A
:101D800082510E94F310C0E08C2FCF91089581E022
:101D90000E94221E43E062E081E00E94AA09F3CF84
:101DA00081E00E94431E43E062E081E00E94AA09B4
:101DB000EBCF82E0F6CF8031FFE59F0789F38131D9
:101DC0009F45B9F3C1E0E0CF8031EFE59E07F9F21E
:101DD00081319F45C9F682E0DBCF2FEFFC012083E4
:101DE0000895EF92FF920F931F93CF93DF93EC012F
:101DF000062FE881E150E33108F05EC0F0E0E25ADE
:101E0000FC4C0C94F932198289E08A83602FCE0150
:101E1000DF91CF911F910F91FF90EF900C94AA2B1F
:101E20008981823069F0833071F08130D9F40E9469
:101E300006220E94FF326A837B838C839D83E6CFD8
:101E40000E94950EF6CF7E0122E0E20EF11C10E01A
:101E5000812F0E94400CF70181937F011F5F143195
:101E6000B9F7D4CF602FCE010E94ED0ECFCF89817C
:101E70008230C1F76A817B818C819D810E94FF3213
:101E80000E949E0EC3CF4B816A8189810E94C90F37
:101E90009827892798279D838C83B8CF2C813D81F3
:101EA0003227232732274B816A8189810E94E20FE2
:101EB000ADCF0E94F70FAACF8FEF8883A7CF0E94E4
:101EC0008C108983A3CF0E948E109827892798278A
:101ED0009A8389839BCF6B8170E089819A81AE015F
:101EE0004C5F5F4F9827892798270E9491108ECFCB
:101EF0006B8170E089819A81AE014C5F5F4F9827BA
:101F0000892798270E94B81081CF0E94E3107ECFC6
:101F10000E94B60FD6CF6B8170E089819A81AE01A5
:101F20004C5F5F4F9827892798270E942F106ECF0C
:101F30006B8170E089819A81AE014C5F5F4F982779
:101F4000892798270E94551061CF0E948F0E5ECF7F
:101F50000E94AA2BFFEF21EE84E0F1502040804048
:101F6000E1F700C000000E94452250CF84E00895B0
:101F700098E0699FB001112450E0440F551F640F91
:101F8000751F90EA899F600D711D1124CB01869603
:101F900008950F931F93CF93DF930E94B80F8C0186
:101FA0000E941A33C82FD0E0DC2FCC27C80101963D
:101FB0000E941A339E01282BC901DF91CF911F91F6
:101FC0000F9108950F931F93CF93DF93122F032F39
:101FD0000E94B80FEC01602F0E942833612FCE01C0
:101FE0000196DF91CF911F910F910C942833AF92FE
:101FF000BF92CF92DF92EF92FF921F93CF93DF9326
:102000008CEAC82E80E0D82ED0E07601C0E014C063
:10201000F50125913491412F6C2F8D2F0E94E20FF5
:1020200082E0A80EB11C1F5F143091F788E0E80E23
:10203000F11CCF5FC43119F0570110E0E9CFDF5F29
:1020400080EAC80ED11CD43001F7DF91CF911F91E7
:10205000FF90EF90DF90CF90BF90AF900895EF92F8
:10206000FF920F931F93CF93DF93EC018A017C01C2
:10207000E60EF71ECE018696CE15DF0539F4DF9108
:10208000CF911F910F91FF90EF900895C03822E0FB
:10209000D20740F40E941A33F80180830F5F1F4F6C
:1020A0002196E8CFF8011082F9CFCF92DF92EF921C
:1020B000FF920F931F93CF93DF937C016A018C01F2
:1020C000060F171FEC01CE018696C017D10749F401
:1020D000DF91CF911F910F91FF90EF90DF90CF9004
:1020E0000895C03822E0D20740F4FE01EE19FF093E
:1020F000EC0DFD1D60810E9428332196E4CF462F10
:10210000843038F4743128F4643018F4672F0C9458
:10211000C90F90E080E0089580E108958AE591E09C
:102120000895EF92FF920F931F93CF93DF93EC01EB
:102130008A017C01E60EF71ECE018A559D4FCE1511
:10214000DF0539F4DF91CF911F910F91FF90EF9050
:102150000895CA3521E0D20740F40E941A33F801ED
:1021600080830F5F1F4F2196E7CFF8011082F9CFD0
:10217000CF92DF92EF92FF920F931F93CF93DF9353
:102180007C016A018C01060F171FEC01CE018A55F4
:102190009D4FC017D10749F4DF91CF911F910F9147
:1021A000FF90EF90DF90CF900895CA3521E0D207DD
:1021B00040F4FE01EE19FF09EC0DFD1D60810E9447
:1021C00028332196E3CFCF93DF93C6EAD2E060E0D5
:1021D000CE010E9428332196C11584E0D807B9F7B3
:1021E000DF91CF910895DF92EF92FF920F931F93AB
:1021F000CF93DF9300D000D0CDB7DEB7F82E8FE0BD
:102200008F1540F08FEF93E00E941A3306EA12E038
:102210008823C1F00F900F900F900F90DF91CF9116
:102220001F910F91FF90EF90DF900895011584E0CA
:10223000180781F3C8010E941A33811101C0FA9472
:102240000F5F1F4FF110F2CF19821A821B821C827E
:10225000DD24D39478018FEFE81AF80AC8010E94B0
:102260001A3389831A828823A9F29FEF980F93303B
:1022700078F48A83D9820E5F1F4FC7010E941A33F8
:102280008B83882339F2CE0101960E945309E2CF55
:102290008701F9CFAF92BF92CF92DF92EF92FF9278
:1022A0000F931F93CF93DF937C015B01C42FD22F39
:1022B000FC0182818823F9F04093B7010E94FA2142
:1022C0009093B6018093B50180E28C0F883008F0BE
:1022D00061C0C77081E001C0880FCA95EAF7DF913D
:1022E000CF911F910F91FF90EF90DF90CF90BF9013
:1022F000AF900C94A9171091B701141340C08091AE
:10230000B5019091B6010E9412226C01B701C5017E
:102310000E949B1CC816D90690F5C0E2CD0F1D1770
:10232000B9F080E2810F883040F4177081E001C07D
:10233000880F1A95EAF70E94B017C83048F481E078
:102340009D2F977001C0880F9A95EAF70E94A917F0
:10235000802F0E949617C830E8F4D77081E001C042
:10236000880FDA95EAF7DF91CF911F910F91FF90D7
:10237000EF90DF90CF90BF90AF900C94B01780E2B9
:102380008C0F883038F4C77081E001C0880FCA957F
:10239000EAF7E9CFDF91CF911F910F91FF90EF9076
:1023A000DF90CF90BF90AF9008950F939C01CB0129
:1023B000243F4CE5340759F1A8F4293DFCE53F07DB
:1023C00001F12A3D4CE53407D1F1283D3C4591F41B
:1023D00006E221EE41EE68ED7CE50E944A1180E0C4
:1023E0000F910895263FFCE53F07E9F0B0F0273F45
:1023F0003C45F9F0FC018281882339F11092B70144
:10240000EFCF07E225EE45EE69ED7CE5E6CF06E28B
:1024100021EE40EE64EF7CE5E0CF07E225EE44EEEE
:1024200065EF7CE5DACF06E221EE42EE66EF7CE571
:10243000D4CF07E225EE46EE67EF7CE5CECF08E28B
:1024400021E045EE6AED7CE5C8CF81E0C9CFCF93AE
:10245000DF93EC01FB018281882309F419C1C230AA
:10246000FCE5DF07C0F1C6319CE5D90730F09E01DD
:102470002B5F3C452930310570F50E948B209093ED
:10248000C1028093C002C031ECE5DE0709F4CFC081
:1024900008F05BC0C8308CE5D80709F4B6C088F5F1
:1024A000C430ECE5DE0709F4A8C0C0F4C2308CE506
:1024B000D80709F49CC08091C0028260C330DC451B
:1024C00009F498C08091C0029091C1020E949920A5
:1024D0000E94251A80E0DF91CF9108958091C0027B
:1024E0008061C630ECE5DE0709F484C08091C0024B
:1024F0008860C730DC4508F47DC08091C0028062EE
:1025000079C0CC308CE5D80709F489C070F480918B
:10251000C0028C60CA30ECE5DE0709F46BC008F439
:1025200078C08091C0028E7F65C0CE308CE5D80720
:1025300009F479C08091C0028B7FCF30DC4508F46C
:1025400059C08091C0028F7E55C0CC3FECE5DE07BC
:1025500009F457C030F5C3318CE5D80709F46FC0D2
:1025600078F4C131ECE5DE0709F465C0C231DC4521
:1025700009F0A8CF0E94251A8091C0028F773AC037
:10258000C5318CE5D80709F462C008F476C08091A3
:10259000C1028160CB3FDC4509F094CF8093C1023A
:1025A00091CFC115FDE5DF0709F44DC088F4809196
:1025B000C1028D7FCE3F9CE5D90781F38091C10296
:1025C0008E7FCF3FDC4550F38091C1028360E6CF20
:1025D000C230FDE5DF0709F459C008F444C080E0CB
:1025E000C330DD4509F06ECF0E941E216BCF809174
:1025F000C00281608093C00265CF8091C002846078
:10260000F9CF8091C1028260C9CF8091C0028064FD
:10261000F1CF0E94251A8091C0028068EBCF809193
:10262000C0028D7FE7CF8091C002877FE3CF80918A
:10263000C0028F7DDFCF8091C0028F7BDBCF809186
:10264000C002837FD7CF8091C1028C7FA7CF8091BA
:10265000C00282FB992790F921E0922790FB82F932
:1026600090FB83F9C7CF8091C102982F909591700C
:102670008E7F892B90FB81F991CF0E94251A909132
:10268000C002892F97FB87F98058B4CF81E0ACCF87
:1026900081E021CFCF93DF93EB0186319C4511F58B
:1026A0000E94A61F9A81992399F08A7A91E009F4F1
:1026B00090E09093B801811109C089E20E94811FC6
:1026C0000E94F21F80E0DF91CF91089585E3F6CF5D
:1026D0008091B801811104C089E20E94881FF0CF67
:1026E00085E3FBCF81E0EFCF1092B90088E48093BF
:1026F000B8000895EF92FF920F931F93CF93DF934B
:10270000182FEB011092BC0084EA8093BC000E9459
:10271000FA217C018091BC0087FF27C08091B9001D
:10272000887F883029F08091B900887F8031D9F581
:102730001093BB0084E88093BC000E94FA218C01B6
:102740008091BC0087FF24C02091B900287F90E0D1
:1027500080E02831B1F081E090E0203411F490E085
:1027600080E09195819591090CC0CF3FDC0791F2F3
:102770000E94FA218E199F098C179D0758F28EEF3F
:102780009FEFDF91CF911F910F91FF90EF900895F0
:10279000CF3FDC07A9F20E94FA21801B910B8C1716
:1027A0009D0770F2ECCF8FEF9FEFEBCF0F931F934E
:1027B000CF93DF93EB018093BB0084E88093BC0050
:1027C0000E94FA218C018091BC0087FF11C02091EA
:1027D000B900287F81E090E0283211F490E080E099
:1027E000919581959109DF91CF911F910F91089556
:1027F000CF3FDC0741F30E94FA21801B910B8C171D
:102800009D0708F38EEF9FEFEECF0F931F93CF93AB
:10281000DF93EC0184EC8093BC000E94FA218C01D0
:102820008091BC0087FF08C08091BB0090E0DF91E1
:10283000CF911F910F910895CF3FDC0789F30E943C
:10284000FA21801B910B8C179D0750F38EEF9FEFA1
:10285000EECF0F931F93CF93DF93EC0184E8809327
:10286000BC000E94FA218C018091BC0087FF08C047
:102870008091BB0090E0DF91CF911F910F9108955F
:10288000CF3FDC0789F30E94FA21801B910B8C1744
:102890009D0750F38EEF9FEFEECFCF92DF92EF9236
:1028A000FF920F931F93CF93DF93F82EE62EEA014A
:1028B0006901B8010E947A1397FD15C0B8018E2DE9
:1028C0000E94D61397FD0FC0B8018F2D81600E9422
:1028D0007A13F12CE12C21E0C21AD108EC14FD048A
:1028E00000F597FF11C024E92093BC0018161906C3
:1028F00014F490E080E0DF91CF911F910F91FF9051
:10290000EF90DF90CF900895C8010E94051497FDC5
:1029100004C0FE01EE0DFF1D80832FEFE21AF20AC4
:10292000DDCF97FDE0CFC8010E94291497FDDBCFD2
:10293000CC0DDD1D8883D7CF8093BA0085EC8093C2
:10294000BC0008951F921FB61F9211248F939F936E
:10295000EF93FF938091B900887F8038C1F038F4FD
:10296000882309F448C0803679F081E022C0883A93
:1029700011F0883BD1F7E091BA01F0E0E256FD4F4B
:1029800080818093BB0031C01092B901EECF80915D
:10299000B901811122C08091BB008093BA0180915E
:1029A000BA018E31C0F01092BA0180E091E09093AC
:1029B000B9019091BC008295880F880F807C892B8B
:1029C00085688093BC00FF91EF919F918F911F903C
:1029D0001FBE1F90189581E0E9CFE091BA01F0E0A9
:1029E0008091BB00E256FD4F80838091BA018F5FDA
:1029F0008093BA01BACF1092BC00B7CF9093C001B8
:102A00008093BF010895E091BF01F091C00130971C
:102A100021F00190F081E02D099480E00895EF927B
:102A2000FF920F931F93CF93DF938C01E091BF012F
:102A3000F091C0013097C1F10280F381E02D09953A
:102A40008091560282FF30C080FF04C085E194E08F
:102A50000E94AD07D0E0C0E08FE0E82E84E0F82EC1
:102A60008091560280FF0EC0F801EC0FFD1F80819F
:102A70001F928F93FF92EF920E9446080F900F9043
:102A80000F900F902196C830D10551F780915602D2
:102A900080FF0AC08DE094E0DF91CF911F910F91EC
:102AA000FF90EF900C94AD07DF91CF911F910F91A4
:102AB000FF90EF900895E091BF01F091C001309731
:102AC00039F022E0DC012C930480F581E02D09949B
:102AD00008952091BD013091BE012817390771F08A
:102AE0009093BE018093BD01E091BF01F091C001C0
:102AF000309721F00680F781E02D09940895209108
:102B0000BB013091BC012817390771F09093BC01CB
:102B10008093BB01E091BF01F091C001309721F09B
:102B20000084F185E02D0994089585B7806885BFFC
:102B300085B7806885BF0895089508950C949C1505
:102B400008950C94A0150E9495150E949D150C9453
:102B50009E150C94120E089508950E94F1210E9472
:102B6000A80C0E94A20E0E946C220C94A115CF9377
:102B7000C82F8091560282FF1EC080FF1CC08EE2CB
:102B800094E00E94AD078091560280FF14C01F920E
:102B9000CF9389E294E09F938F930E94460880919F
:102BA00056020F900F900F900F9080FF04C087E2A5
:102BB00094E00E94AD078C2FCF910C94370ABF92FE
:102BC000CF92DF92EF92FF920F931F93CF93DF93F9
:102BD000CDB7DEB72A970FB6F894DEBF0FBECDBFD4
:102BE0000E94AB150E94AC150E945C0D0E94A915B5
:102BF000882309F45EC082ECC82E81E0D82E10E054
:102C000000E0B02E802F0E94400CE82EF601F190DB
:102C10006F01F81609F447C08091560281FD0E94A9
:102C2000460C9F2D9E2580E0FF24F394292F2F2111
:102C3000B1F18E83BF82EF2081E009F480E08887C4
:102C40000E94FA218160782F9A8789874E815F815F
:102C500068858A850E947A16F801EE53FE4F8081BE
:102C6000F826F0820E9499240E9403159091C101D8
:102C7000891781F10E9403158093C1012A960FB62E
:102C8000F894DEBF0FBECDBFDF91CF911F910F91A2
:102C9000FF90EF90DF90CF90BF900C94B7158F5FAF
:102CA000FF0C843019F60F5F1F4F0431110509F036
:102CB000A8CF8FEF89838A831B820E94FA218160CB
:102CC000782F9D838C8349815A816B818D810E94ED
:102CD0007A16C8CF2A960FB6F894DEBF0FBECDBFC6
:102CE000DF91CF911F910F91FF90EF90DF90CF90E8
:102CF000BF900895CF93DF93CDB7DEB72B970FB674
:102D0000F894DEBF0FBECDBF4F83588769877A879F
:102D10008B871E821D8285E0FE013796DE011196AB
:102D200001900D928A95E1F749815A816B817C81EE
:102D30008D819E812B960FB6F894DEBF0FBECDBF5E
:102D4000DF91CF910C949E1CFC01808191810C94A9
:102D5000531FCF93C82F882309F490C08238C1F441
:102D60000E94031581FD8AC089E30E94811F0E9491
:102D7000F21F2FEF81EE94E0215080409040E1F768
:102D800000C0000089E30E94881FCF910C94F21FBD
:102D90008338A1F40E94031580FD70C083E50E9472
:102DA000811F0E94F21F2FEF81EE94E0215080409E
:102DB0009040E1F700C0000083E5E5CF8438A1F43E
:102DC0000E94031582FD5AC087E40E94811F0E9461
:102DD000F21F2FEF81EE94E0215080409040E1F708
:102DE00000C0000087E4CFCF8CEF8C0F813AB8F49D
:102DF0008C2F0E947A29811141C06C2F809119017A
:102E000090911A010E943521882329F08C2F0E946D
:102E1000881F0E94F21F8C2F0E94811FB6CF80E274
:102E20008C0F883048F4C77081E001C0880FCA95C4
:102E3000EAF70E94A91FA9CFEBE5EC0FE33040F4BD
:102E4000F0E0E357FE4F808190E0CF910C9469153C
:102E5000E8E5EC0FE73150F4F0E0EE0FFF1FE15A28
:102E6000FE4F80819181CF910C947F15C03F30F04F
:102E70008C2F0E941123CF910C94FC23CF910895A5
:102E8000882309F452C0823871F40E94031581FF2F
:102E90004CC089E30E94811F0E94F21F89E30E94B7
:102EA000881F0C94F21F833859F40E94031580FF89
:102EB0003CC083E50E94811F0E94F21F83E5EFCF93
:102EC000843859F40E94031582FF2FC087E40E94C2
:102ED000811F0E94F21F87E4E2CF9CEF980F913A86
:102EE000F0F290E2980F983050F4877091E001C0B2
:102EF000990F8A95EAF7892F0E94AF1FD2CF9BE5E1
:102F0000980F933020F490E080E00C94691598E5D8
:102F1000980F973120F490E080E00C947F15803F6B
:102F200020F00E9479230C94FC230895CF93C82F9E
:102F30000E94A916C93349F42FEF87EE93E0215080
:102F400080409040E1F700C000008C2FCF910C949E
:102F50004017882321F00E94A91F0C94F21F0895A6
:102F6000882321F00E94AF1F0C94F21F0895BF9296
:102F7000CF92DF92EF92FF920F931F93CF93DF9345
:102F80006C01D62FC72FFC01058102950F701281AD
:102F900011110E94C61F0E949F1FE82E882391F0E6
:102FA0001123D1F08C2F807F803421F080E28D0FAF
:102FB000883090F082E00E943D200E949F1F91E0A7
:102FC000E82EE926BC2EB2949FE0B922EB2DF0E06A
:102FD000EF58FC4C0C94F932E12CF4CF0C2F0F700D
:102FE000C07F11F00295007F1123A9F0002359F052
:102FF00080E28D0F883010F0D11109C0802F0E941F
:10300000A91F0E94F21F8D2F0E94A91614C0802FA5
:103010000E94B91FF6CF8D2F0E944017002359F050
:1030200080E28D0F883010F0D1112CC0802F0E94CB
:10303000AF1F0E94F21F2B2D2850330B2430310577
:1030400020F40E9403150E94370AEE2009F49EC165
:103050000E949B1F80FD9AC1F60112820E94951F5B
:103060000E94221EC6010E94E7190E94951FDF914F
:10307000CF911F910F91FF90EF90DF90CF90BF9075
:103080000C94431E802F0E94BF1FD3CFFC2FFF70D4
:10309000FF2EC07FC03219F0F29480EFF822DD23BA
:1030A00069F0D13049F1112391F1002351F1F6017A
:1030B000858180FFA8CF8F70858323C0112381F085
:1030C000011106C00E94D91F8F290E94A917B3CFF2
:1030D0000130C1F70E94D91F8F290E94DF1FABCF9B
:1030E000011106C00E94E81F8F2D0E94B017A3CFC8
:1030F000013009F4A0CFF6CF112329F0063008F0F3
:103100009ACF8F2DE2CF053008F095CFEDCF002379
:1031100059F3D93349F4FFEF27EE33E0F150204063
:103120003040E1F700C000008D2F0E94401783CF90
:103130008C2F86958695837069F0813009F07BCF5E
:103140008D2F9C2F9370111102C090E080E00E949F
:103150007F1571CF8D2F9C2F9370111102C090E0BD
:1031600080E00E94691567CF8D2F112329F00E94FE
:1031700011230E94FC235FCF0E947923FACF8C2F6A
:10318000837009F041C0111156CF4D2F42954695DD
:103190004770440F440F0D2F0F7010E030E020E017
:1031A000042E04C0000F111F221F331F0A94D2F7F0
:1031B00060E070E0CB01D4FF0FC06FE070E080E012
:1031C00090E004C0660F771F881F991F4A95D2F7B9
:1031D0006095709580959095C695C695C370602B47
:1031E000712B822B932BC23049F058F4C13019F067
:1031F0000E94D41D20CF0E94C21D1DCF0E94E61D3B
:103200001ACF0E94C01D17CF8695112311F08C2F65
:103210008170882309F40FCF4D2F42954695477052
:10322000440F440F0D2F0F7010E030E020E0042E0B
:1032300004C0000F111F221F331F0A94D2F760E051
:1032400070E0CB01D4FF0FC06FE070E080E090E051
:1032500004C0660F771F881F991F4A95D2F76095A3
:10326000709580959095C695C695C370602B712B0F
:10327000822B932BC23049F058F4C13019F00E94D0
:10328000991ED9CE0E94871ED6CE0E94AB1ED3CEE9
:103290000E94FC1DD0CECF70112329F08C2F0E94EC
:1032A000221E8D2F12CF8D2F0E94B0178C2F0E94BF
:1032B000431EC1CED23F89F160F4D03FC9F0D13F67
:1032C00029F1112309F442C001119DCE8C2F8F7179
:1032D00021C0D33F39F1D43FA1F7112369F1CF7158
:1032E0008C2F0E94221E63E08C2F0E942820A3CEE8
:1032F000112341F0053008F09ECE8C2F8F710E9473
:10330000661E99CE063008F096CEF7CF8C2F8F71BF
:10331000112369F20E94221E8ECE8C2F8F711123F1
:10332000C9F3C5CF112329F08C2F8F710E940D1E78
:1033300082CE0E94081E7FCE81E00E943D20023096
:1033400008F479CE82E00E943D2075CE002359F02A
:10335000D93309F0E9CE8FEF97EEE3E0815090404A
:10336000E040E1F7DFCE8C2F8F71A1CF4C2F4F7053
:103370006D2FC6010E943F0A0E94381D5CCE4C2F63
:103380004F706D2FC6010E94420A55CEDF91CF913A
:103390001F910F91FF90EF90DF90CF90BF90089515
:1033A0000F931F93CF93DF93EC01688179818A811A
:1033B0000E945D1F8C010E94BD1E0E94BF1DB801AE
:1033C000CE01DF91CF911F910F910C94B717CF933E
:1033D000DF93EC018B819C81892B29F08881998175
:1033E00089238F3F59F4DF91CF910895CE010E9438
:1033F000D019CE01DF91CF910C949408CE010E9498
:10340000D8098111F3CF0E949F1F882361F38A811D
:10341000882349F382E0DF91CF910C943D200E94F4
:10342000C61F0E94D61F0E94F21F0E94A5250E945F
:10343000FC2390E080E00E94691590E080E00C940D
:103440007F150E948F1F0C940F1A0E94B61F0C94B8
:10345000211AE92FE295EF70E250EE3070F4F0E0BF
:10346000EF57FC4C0C94F932803F19F020F4883E61
:1034700020F481E00895843FE1F380E00895883EE0
:10348000C0F3813FD1F7F5CF93FB882780F90895EA
:103490000E94531F0C94291ACF93DF9300D000D0C1
:1034A0000F92CDB7DEB70F900F900F900F900F9047
:1034B000DF91CF910895CF93DF9300D000D000D05B
:1034C000CDB7DEB726960FB6F894DEBF0FBECDBFE0
:1034D000DF91CF9108951F93CF93DF93C091D701D0
:1034E00016E08091D8018C1304C0DF91CF911F9119
:1034F0000895D0E01C9FF0011D9FF00D1124E752AC
:10350000FE4F4081518162817381848195810E9447
:103510005B1A2196C770E5CF4091090250910A02CB
:1035200060910B0270910C0280910D0290910E023D
:103530000C945B1A1F93CF93DF9380910E02807FD0
:10354000A9F480910B02882389F08091D701C09162
:10355000D8016091090270910A02A0910C02B09109
:103560000D02D62FD72316E0C81304C0DF91CF91E8
:103570001F91089590E0109711F0DF3F19F4019624
:103580008770F2CF189F9001199F300D1124F90117
:10359000E752FE4F41814713F2CF40814613EFCFF0
:1035A00042814111ECCF438154814A1B5B0B483C63
:1035B000510528F780910E028F70806180930E0272
:1035C000F901E252FE4F80818F708061808389E033
:1035D00092E00E94E719DF91CF911F910C946B1A32
:1035E000AF92BF92CF92DF92EF92FF920F931F9311
:1035F000CF93DF93CDB7DEB761970FB6F894DEBFF8
:103600000FBECDBF8C0185E0F801DE011D96019053
:103610000D928A95E1F7F80140815181E28089E0BD
:10362000C82E82E0D82E60910C0270910D026115B7
:10363000710509F461C19091090220910A02892F54
:1036400082238F3F09F458C1A380B480F0900B020D
:10365000F501E61BF70BFF2009F4FCC080910E0278
:10366000382F307FE83CF10508F0B2C0311179C045
:10367000FE2C251323C0941321C0E1101FC08F70AE
:10368000806180930E020E948C1AC6010E94E71985
:1036900080910E02F80185838F2D61960FB6F89404
:1036A000DEBF0FBECDBFDF91CF911F910F91FF9075
:1036B000EF90DF90CF90BF90AF900895AB2829F0A6
:1036C000842F85238F3F09F033C180E0F82FF170FC
:1036D000DF2E80FF3CC08091D7012091D80136E0D9
:1036E000821315C04D875E878D859E850E94531F6E
:1036F000292F22952F702230F0F0243018F59F707A
:10370000F1F0F8019581907FD1F4D12C1EC090E0AA
:10371000389FF001399FF00D1124E752FE4F61816F
:10372000651306C06081641303C062816E110FC00F
:1037300001968770D5CF9F7011F0882331F3805E9A
:10374000883018F3C8010E94E719FD2CA5CFEE20A0
:1037500009F4A2CF80910E02816080930E02F12CB9
:103760009BCF251306C0941304C0F801EE2009F482
:103770008DC04D875E878D859E850E94481A88235F
:1037800019F1EE2009F180910E02803270F0209143
:10379000090230910A0238872F831986BB86AA86D0
:1037A0008C87CE0107960E94E71986E0F801A9E010
:1037B000B2E001900D928A95E1F70E949A1A0E9458
:1037C0008C1AFF24F39468CFC8010E94E719F9CF3F
:1037D000311113C07A2DB98AA88A6E2D89890E9469
:1037E0004C1A89E092E00E94E71986E0F6011192F6
:1037F0008A95E9F70E948C1AB2CF25130FC0941353
:103800000DC0E1100BC0F8018583C8010E94E719C3
:1038100086E0F60111928A95E9F73ECF4D875E87E3
:103820008D859E850E94481A882371F2EE2061F2F0
:1038300080910E02803208F4B8CF209109023091B5
:103840000A023A8329831B82BD82AC828E83CE0119
:103850000196A9CFE83CF10508F041C0FE2CEE200E
:1038600009F4B2CF25132AC0941328C080910E0208
:1038700080FD1BC0982F907FC1F0F8018583903F99
:1038800031F0982F907F905F8F70892B8583C801CE
:103890000E94E71986E0F801A9E0B2E001900D92DC
:1038A0008A95E1F70E948C1AF7CE86E0F801A9E02C
:1038B000B2E001900D928A95E1F7EECE4D875E87DA
:1038C0008D859E850E94481A81116FCF80910E02CE
:1038D000816080930E02C8010E94E719DDCE7A2D27
:1038E000B98AA88A6E2D89890E944C1A86E0F60151
:1038F00011928A95E9F7D6CFEE2009F465CF4D876E
:103900005E878D859E850E94481AF82E882309F4CB
:103910005BCF86E0F801A9E0B2E001900D928A95B4
:10392000E1F789E092E00E94A4160E949A1ABACFA9
:1039300081E08E25CBCE88EC90E008951F93CF9345
:10394000DF93CDB7DEB72C970FB6F894DEBF0FBE6E
:10395000CDBF4F83588769877A878B879C87CE0135
:1039600007960E94F01A882369F08A859B85892B27
:1039700039F04F815885842F85238F3F09F071C01E
:1039800016E05FC086E0FE013796DE0111960190D9
:103990000D928A95E1F78A859B85892B89F38F8122
:1039A000988589238F3F61F32091D80130E0C901C8
:1039B0000196877099274091D7014817190671F42D
:1039C0000E94251A1092D8011092D70186E0E9E0F2
:1039D000F2E0DF011D928A95E9F7D2CF96E0929F3F
:1039E000D001939FB00D1124A752BE4FFE01319616
:1039F00001900D929A95E1F78093D8010E946B1A7D
:103A0000BFCF819FC001112487529E4F0E94F01AA0
:103A10008823E9F0E091D7011E9FF0011124E752BD
:103A2000FE4F4081518162817381848195810E9422
:103A30005B1A8091D70190E0019687709927809357
:103A4000D7018091D7019091D8018913DACF2C96B4
:103A50000FB6F894DEBF0FBECDBFDF91CF911F919F
:103A6000089569857A858B859C850E945B1A88CF2D
:103A7000EF92FF920F931F93CF93DF938C01892BCB
:103A800081F0F12CEE24E394E8012196F801849171
:103A9000843770F4843008F05FC08130B1F0823038
:103AA000A1F1DF91CF911F910F91FF90EF900895B9
:103AB000853709F44CC008F43DC09CE7980F903757
:103AC00080F78F770E94401749C00E5F1F4FFE019D
:103AD000849190E2980F983060F48770FE2D01C0B9
:103AE000FF0F8A95EAF78F2F0E94C91F0E94F21FCD
:103AF00002C00E94A9168F2D815030F2EFE9FFE03D
:103B00003197F1F700C00000F7CF0E5F1F4FFE01A5
:103B1000849190E2980F983050F48770FE2D01C088
:103B2000FF0F8A95EAF78F2F0E94CF1FDFCF0E94E9
:103B30004017E1CF0E5F1F4FFE01C491C150D8F274
:103B40008FE99FE00197F1F700C00000F7CF0E5F0B
:103B50001F4FFE01F490CFCF0E94A9168E01CBCF4C
:103B600008950C94B01D0E94B11D6093450270939E
:103B7000460280934702909348020C940F1A0895CE
:103B80000C94B31D0F931F930091450210914602B0
:103B90002091470230914802602B712B822B932B8E
:103BA0001F910F910C94B31D0F931F930091450229
:103BB0001091460220914702309148026023712300
:103BC000822393231F910F910C94B31D0F931F9386
:103BD000009145021091460220914702309148021F
:103BE00060277127822793271F910F910C94B31D93
:103BF0000C94B01D0C94F81D0E94FA1D60934102B4
:103C00007093420280934302909344020C940F1AE3
:103C100060E070E0CB010C94FC1D0F931F9341E01A
:103C200050E060E070E08A019B0104C0000F111FAA
:103C3000221F331F8A95D2F7C901B8011F910F9136
:103C40000C94FC1D0F931F9341E050E060E070E086
:103C500004C0440F551F661F771F8A95D2F78091C5
:103C6000410290914202A0914302B09144028A0124
:103C70009B01082B192B2A2B3B2BC901B8011F9143
:103C80000F910C94FC1D0F931F9341E050E060E0F6
:103C900070E004C0440F551F661F771F8A95D2F746
:103CA000CB01BA0160957095809590950091410285
:103CB000109142022091430230914402602371230B
:103CC000822393231F910F910C94FC1D0F931F933C
:103CD00041E050E060E070E004C0440F551F661FF3
:103CE000771F8A95D2F78091410290914202A0916C
:103CF0004302B09144028A019B01082719272A2711
:103D00003B27C901B8011F910F910C94FC1D0F9323
:103D10001F93009141021091420220914302309181
:103D20004402602B712B822B932B1F910F910C94CB
:103D3000FC1D0F931F9300914102109142022091AC
:103D400043023091440260237123822393231F9105
:103D50000F910C94FC1D0F931F9300914102109141
:103D6000420220914302309144026027712782274A
:103D700093271F910F910C94FC1D0895990F990F93
:103D8000890F982F977041E001C0440F9A95EAF788
:103D900086958695869595E0899FF0011124E15FCF
:103DA000FD4F30E020E070E05191DF011197CB0131
:103DB000022E02C0969587950A94E2F7817081954C
:103DC0008527842385278C932F5F3F4F253031052E
:103DD00059F70895990F990F890F982F9770869525
:103DE0008695869525E0829FF0011124E15FFD4FC5
:103DF00050E040E080E0219130E0092E02C036958D
:103E000027950A94E2F721703327042E01C0220F70
:103E10000A94EAF7822B4F5F5F4F4530510559F7FF
:103E20000895BF92CF92DF92EF92FF920F931F936C
:103E3000CF93DF938C01C0904102D0904202E0907A
:103E40004302F09044028091450290914602A09175
:103E50004702B0914802C82AD92AEA2AFB2ACFE1B0
:103E6000D0E0BC2ED701C6010C2E04C0B695A79594
:103E7000979587950A94D2F780FD0EC0219788F711
:103E8000B12C8B2DDF91CF911F910F91FF90EF906F
:103E9000DF90CF90BF900895B8018C2F0E944B0AFD
:103EA000019761F3EECFCF93DF93EC010E94111FD6
:103EB000BE01DF91CF910C944B0A1F93CF93DF93F8
:103EC000EB019091D601992331F0CB01DF91CF9195
:103ED0001F910C94531F882379F0CB010E94111F6E
:103EE000182F682FCE010E94BE1EBE01812FDF91C8
:103EF000CF911F910C944B0ACB010E94EA1E182F00
:103F0000F4CF682F8091190190911A010C946B21C4
:103F1000682F8091190190911A010C946D21809164
:103F2000190190911A010C946F2180914902859595
:103F3000859585950895809149028770089590919F
:103F40004902977081E009F480E00895809155025C
:103F5000089590915502892B80935502089580957C
:103F6000909155029823909355020895109255020E
:103F7000089590915402892B80935402089580955E
:103F800090915402982390935402089510925402F1
:103F9000089590915302892B809353020895809540
:103FA00090915302982390935302089510925302D4
:103FB000089580914A02089508950C94DC1F909111
:103FC0004A02981721F080934A020C94DD1F08954D
:103FD00080914A02882329F010924A0280E00C94D2
:103FE000DD1F0895E0911901F0911A0180915502A9
:103FF0008083E0911901F0911A018081909154021F
:10400000892B8083E0911901F0911A0180819091B0
:104010005302892B808390914A02992381F0E09189
:104020001901F0911A018081892B808380911901F7
:1040300090911A010E94232181110E94E81F809112
:10404000190190911A010C940F1508950C942520D4
:1040500098E0899F90011124622B609349020E948D
:10406000221E809149028595859585950C94262080
:104070001092490280E00C9426209091490280958C
:10408000892380934902282F277071F4282F082E46
:10409000000C330B9217130639F08595859585959D
:1040A0000E94431E0C94382008959093AF01809392
:1040B000AE010895829590E09C01220F331F220FDC
:1040C000331F2C7C95958795959587958373282B21
:1040D00030E0C901880F991F8A7A35952795257593
:1040E000822B08956FEF7FEF90E080E00C944633D1
:1040F00090E080E00E94223321E08C3E9E4F09F048
:1041000020E0822F089582E090E00C941A3383E03F
:1041100090E00C941A33CF9384E090E00E941A331D
:10412000C82F81E290E00E941A33982F8C2FCF91F4
:104130000895CF93C92F682F84E090E00E94283320
:104140006C2F81E290E0CF910C942833AB01BC013D
:104150008FE090E00C943A33AB01BC0183E190E036
:104160000C943A3360E070E0CB010C94AC2060E03A
:1041700070E0CB010E94A6200C94B2206CEE7EEF82
:1041800090E080E00E94463360E082E090E00E9490
:10419000283360E083E090E00E94283310924502CB
:1041A00010924602109247021092480260E084E0AA
:1041B00090E00E94283360E081E290E00E94283382
:1041C00060E085E090E00E94283360E086E090E0C7
:1041D0000E9428336FEF87E090E00E94283340E090
:1041E00050E0BA0188E090E00E943A3360E08DE050
:1041F00090E00E94283340E050E0BA0188E190E06E
:104200000E943A3360E087E190E00E94283340E06A
:1042100050E0BA018CE190E00E943A3360E080E225
:1042200090E00E94283340E050E0BA0188E190E03D
:104230000E943A330C94B7200C94BE20682F8EE075
:1042400090E00C9428339C012E5F3F4FAC01485FF7
:104250005F4F80E02417350709F40895F901919123
:104260009F019923B9F38F5FF5CF662349F0FC01D5
:10427000329608962191261729F0E817F907D1F709
:1042800080E0089581E008959C01FC0132969FEF43
:1042900080E04191461751F09F3F19F4411101C050
:1042A000982F8F5F8630A9F79F3F09F40895290F53
:1042B000311D97FD3A95F90162830895FC0132960C
:1042C00008962191261303C0DF0111971C92E8176D
:1042D000F907B9F708950C9444210C945E210296D5
:1042E00026E0FC0111922A95E9F7089508950895B2
:1042F0000C9477210E9478218091C602843049F184
:104300001092570288E190E020E40FB6F894A89547
:10431000809360000FBE2093600080E00E94370A07
:104320000E94782183B7817F846083BF83B78160D7
:1043300083BF7894889583B78E7F83BF0FB6F89438
:10434000A895809160008861809360001092600061
:104350000FBE08950895CF930E9476210E945C0DB0
:104360000E94AA21C0E08C2F0E94400C811105C040
:10437000CF5FC431C1F7CF91089581E0FCCF08959C
:104380000C94BF210E94251A0E9403150E94370A2F
:104390000C94C0211F921FB61F9211248F939F93DC
:1043A000AF93BF9380915702811113C08091BC02DB
:1043B0009091BD02A091BE02B091BF024196A11D95
:1043C000B11D8093BC029093BD02A093BE02B09336
:1043D000BF02BF91AF919F918F911F901FBE1F9001
:1043E000189582E084BD93E095BD9AEF97BD8093C8
:1043F0006E0008952FB7F8948091BC029091BD0291
:10440000A091BE02B091BF022FBF08952FB7F894BC
:104410006091BC027091BD028091BE029091BF027A
:104420002FBF08959C014FB7F8948091BC029091E2
:10443000BD02A091BE02B091BF024FBF821B930B81
:10444000089578941F921FB61F9211248F939F9303
:10445000AF93BF938091BC029091BD02A091BE0228
:10446000B091BF020196A11DB11D8093BC02909333
:10447000BD02A093BE02B093BF02BF91AF919F91C6
:104480008F911F901FBE1F90189587E797E7909315
:1044900001088093000888E19AE00FB6F894A89587
:1044A000809360000FBE90936000FFCF0C948F0E3E
:1044B0000E945C0D8FE39CE90197F1F700C00000BA
:1044C0000E945C0D80E00E94400C80FF04C00E94AE
:1044D00056220C94452208950E947820811102C032
:1044E0000E941C210E948320809356020E948B20F0
:1044F0009093C1028093C0020E948720682F70E0D1
:1045000090E080E00E94C01D6091410270914202E3
:1045100080914302909144020C94FA1D80915E02B6
:1045200080FF12C06091200185E0689FB0011124D6
:10453000759567957595679560387105A8F561154E
:104540007105A1F1862F089581FF09C060912001B6
:1045500085E0689FB001112475956795EDCF609156
:10456000200182FD0AC080915D028823D1F09091E4
:104570001F0160912001891728F085E0689FB00134
:104580001124DACF869FB001112485E0869F900127
:10459000879F300D1124692F70E0C9010E94E53218
:1045A000CBCF65E070E0CECF8FE7089581E008952E
:1045B00080915E0280FF0CC060911C0170E07595D7
:1045C0006795759567956115710549F1862F089571
:1045D00081FF06C060911C0170E075956795F3CF6F
:1045E00060911C0182FD0BC090915C029923A1F0A7
:1045F00060911B0180911C01961738F0682F70E0C4
:104600006038710500F38FE70895899FC001112478
:1046100070E00E94E532F4CF61E070E0D7CF81E036
:104620000895803F31F40E948E228195809362022A
:104630000895813F19F40E948E22F8CF823F31F411
:104640000E948E228195809361020895833F19F420
:104650000E948E22F8CF893F29F40E94D8228093AD
:10466000630208958A3F21F40E94D8228195F7CFF2
:104670008B3F31F40E94D822819580936402089583
:104680008C3F19F40E94D822F8CF843F31F48091F6
:1046900060028160809360020895853F21F48091DB
:1046A00060028260F7CF863F21F4809160028460CF
:1046B000F1CF873F21F4809160028860EBCF883F83
:1046C00021F4809160028061E5CF8D3F31F48091CB
:1046D0005E02816080935E0208958E3F21F4809196
:1046E0005E028260F7CF8F3FB9F780915E028460EF
:1046F000F1CF90916102803F59F48091620287FF6F
:104700000DC01092620291110BC010925D0208C0A0
:10471000813F81F48091620218169CF3992381F005
:104720008091630290916402892B09F064C0109219
:104730005C020895823F49F497FFF0CF1092610226
:10474000809162028111ECCFE0CF833F19F41916FA
:10475000ACF3E4CF20916302893F29F41216F4F6FA
:1047600010926302DBCF8A3F19F427FFD7CFF8CF2F
:10477000209164028B3F29F427FFD0CF109264026E
:10478000CDCF8C3F19F41216CCF3C8CF843F31F44F
:10479000809160028E7F80936002C0CF853F21F4BC
:1047A000809160028D7FF7CF863F21F48091600277
:1047B0008B7FF1CF873F21F480916002877FEBCF21
:1047C000883F21F4809160028F7EE5CF8D3F31F4E8
:1047D00080915E028E7F80935E02A0CF8E3F21F497
:1047E00080915E028D7FF7CF8F3F09F097CF809148
:1047F0005E028B7FF0CF08958091560283FF7EC0CA
:1048000088E694E00E94AD07809160021F928F932A
:1048100083E694E09F938F930E94460881E694E09C
:104820000E94AD0780916102282F082E000C330BE7
:104830003F938F938EE594E09F938F930E94460859
:104840008CE594E00E94AD0780916202282F082E2B
:10485000000C330B3F938F9389E594E09F938F93E4
:104860000E94460887E594E00E94AD0780916302AC
:10487000282F082E000C330B3F938F9384E594E090
:104880009F938F930E94460882E594E00E94AD07B3
:1048900080916402282F082E000C330B3F938F93D6
:1048A0008FE494E09F938F930E9446088CE494E0F9
:1048B0000E94AD0780915D021F928F9389E494E07E
:1048C0009F938F930E94460887E494E00E94AD076F
:1048D00080915E021F928F9384E494E09F938F9364
:1048E0000E94460881E494E00E94AD078DB79EB710
:1048F0004C960FB6F8949EBF0FBE8DBF0E94FA2152
:104900009C019091610280916202982B21F030937A
:104910005B0220935A029091630280916402982B6B
:1049200021F030935902209358028FE592E00C94C5
:104930005B15EF92FF920F931F93CF93DF9300D0FD
:1049400000D000D0CDB7DEB786E0EFE5F2E0DE01C3
:10495000119601900D928A95E1F7E0906102F09036
:10496000620200916302109164021092610210923F
:10497000620210926302109264028E2D8F2991F0D0
:1049800080915A0290915B020E941222AC01909198
:104990005D02992309F43FC0809121018417150617
:1049A00008F447C0802F812B91F08091580290919C
:1049B00059020E941222AC0190915C02992309F4E1
:1049C00077C080911D018417150608F47FC080917F
:1049D000610290916202892B90916302892B9091E0
:1049E0006402892B11F00E94FC2386E0FE013196BF
:1049F000AFE5B2E001900D928A95E1F726960FB6E9
:104A0000F894DEBF0FBECDBFDF91CF911F910F9104
:104A1000FF90EF900895209122018AE0289F900155
:104A200011242417350708F0BDCF9F5F90935D02D6
:104A300002C09F3FD1F7EE2059F00E948E229FEFD7
:104A40001E140CF491E0899F802D11248093610243
:104A5000FF2059F00E948E229FEF1F140CF491E06A
:104A6000899F802D1124809362023091610233234B
:104A700009F498CF20916202222309F493CF45EBE9
:104A80003403C0011124992359F09093610245EB3E
:104A9000240390011124332339F03093620282CF32
:104AA00081E080936102F3CF81E0809362027ACF4C
:104AB00020911E018AE0289F9001112424173507B8
:104AC00008F085CF9F5F90935C0202C09F3FD1F7B3
:104AD000002359F00E94D8229FEF10160CF491E0A9
:104AE000899F802D112480936302112359F00E9425
:104AF000D8229FEF11160CF491E0899F802D11248C
:104B00008093640230916302332309F460CF2091D3
:104B10006402222309F45BCF45EB3403C001112466
:104B2000992359F09093630245EB240390011124DB
:104B3000332339F0309364024ACF81E080936302DB
:104B4000F3CF81E08093640242CF86E0EFE5F2E0AC
:104B5000DF011D928A95E9F710925D0210925C02C6
:104B600010925E0208958BE896E00E94AD071F92B6
:104B700081E08F931F9285E08F938DE396E09F9362
:104B80008F930E9446080F900F900F900F900F90F8
:104B90000F900895833009F445C028F4813061F006
:104BA000823049F10895853009F46AC008F451C093
:104BB000863009F47CC0089580912201482F460F69
:104BC0005527551F4F3F510594F4680F60932201FC
:104BD000809122011F928F9386E795E09F938F9398
:104BE0000E9446080F900F900F900F9008958FEF3E
:104BF00080932201EDCF80912101482F460F552748
:104C0000551F4F3F510554F4680F60932101809167
:104C100021011F928F9384E695E0E0CF8FEF809380
:104C20002101F5CF80912001482F460F5527551FB0
:104C30004F3F510554F4680F60932001809120018B
:104C40001F928F9381E595E0C9CF8FEF809320016C
:104C5000F5CF80911F01482F460F5527551F4F3F15
:104C6000510554F4680F60931F0180911F011F923A
:104C70008F938CE395E0B2CF8FEF80931F01F5CF38
:104C800080911C01482F460F5527551F4F3F510556
:104C900054F4680F60931C0180911C011F928F9344
:104CA00083E295E09BCF8FEF80931C01F5CF80913D
:104CB0001B01482F460F5527551F4F3F510554F4F0
:104CC000680F60931B0180911B011F928F9388E0F6
:104CD00095E084CF8FEF80931B01F5CF8330C9F12E
:104CE00028F4813061F0823019F10895853009F49B
:104CF00052C008F43FC0863009F45EC00895809128
:104D00002201681790F4861B809322018091220172
:104D10001F928F9389EF94E09F938F930E94460890
:104D20000F900F900F900F90089510922201EECFE8
:104D300080912101681750F4861B80932101809196
:104D400021011F928F9387EE94E0E6CF109221010C
:104D5000F6CF80912001681750F4861B80932001C4
:104D6000809120011F928F9384ED94E0D5CF109213
:104D70002001F6CF80911F01681750F4861B8093A5
:104D80001F0180911F011F928F938FEB94E0C4CF7E
:104D900010921F01F6CF80911C01681750F4861BFA
:104DA00080931C0180911C011F928F9386EA94E0EE
:104DB000B3CF10921C01F6CF80911B01681750F4FD
:104DC000861B80931B0180911B011F928F938BE8A0
:104DD00094E0A2CF10921B01F6CFCF93C82F1F9261
:104DE0008F9380E997E09F938F930E94460861E03C
:104DF00070E080E090E004C0660F771F881F991F65
:104E0000CA95D2F70E94C01D0F900F900F900F907F
:104E1000CF910C94251ACF93DF938B3109F4FAC10B
:104E200008F09CC18B3009F4B8C108F06AC1863023
:104E300009F4C6C148F4853009F49EC18EE19CE0B6
:104E40000E94AD0780E0CCC1873009F4CCC1883026
:104E5000A9F78DEB9CE00E94AD078EE09CE00E94DC
:104E6000AD070E9487201F928F938BE09CE09F9359
:104E70008F930E94460889E09CE00E94AD070E9443
:104E80008320C82F86EF9BE00E94AD071F92CF932F
:104E900081EF9BE09F938F930E9446088FEE9BE0EB
:104EA0000E94AD0785EE9BE00E94AD078C2F8170BC
:104EB0001F928F9382EE9BE09F938F930E944608F0
:104EC00080EE9BE00E94AD0786ED9BE00E94AD075F
:104ED000C1FB882780F91F928F9383ED9BE09F93FE
:104EE0008F930E94460881ED9BE00E94AD0785EC00
:104EF0009BE00E94AD07C2FB882780F91F928F9329
:104F000082EC9BE09F938F930E94460880EC9BE08D
:104F10000E94AD0787EB9BE00E94AD07C3FBCC2747
:104F2000C0F91F92CF9384EB9BE09F938F930E94D5
:104F3000460882EB9BE00E94AD070E948B20EC01AB
:104F40008EE99BE00E94AD07DF93CF9389E99BE058
:104F50009F938F930E94460887E99BE00E94AD07CC
:104F60008EE79BE00E94AD078C2F81701F928F937C
:104F70008BE79BE09F938F930E9446088DB79EB767
:104F800080960FB6F8949EBF0FBE8DBF89E79BE059
:104F90000E94AD0782E69BE00E94AD07C1FB882717
:104FA00080F91F928F938FE59BE09F938F930E94D0
:104FB00046088DE59BE00E94AD078BE49BE00E94D4
:104FC000AD078D2F81701F928F9388E49BE09F9394
:104FD0008F930E94460886E49BE00E94AD0784E31D
:104FE0009BE00E94AD07D695D1701F92DF9381E3BD
:104FF0009BE09F938F930E9446088FE29BE00E9464
:10500000AD078DE19BE00E94AD07C2FB882780F9C8
:105010001F928F938AE19BE09F938F930E94460893
:1050200088E19BE00E94AD0786E09BE00E94AD070F
:10503000C3FB882780F91F928F9383E09BE09F93A7
:105040008F930E94460881E09BE00E94AD0787EFA6
:105050009AE00E94AD07C4FB882780F91F928F93C6
:1050600084EF9AE09F938F930E94460882EF9AE024
:105070000E94AD0780EE9AE00E94AD07C5FB88272D
:1050800080F91F928F938DED9AE09F938F930E94EA
:1050900046088BED9AE00E94AD078FEB9AE00E94E4
:1050A000AD07C6FB882780F91F928F938CEB9AE09F
:1050B0009F938F930E9446088DB79EB780960FB638
:1050C000F8949EBF0FBE8DBF8AEB9AE00E94AD0799
:1050D00082EB9AE00E94AD07C7FBCC27C0F91F9274
:1050E000CF938FEA9AE09F938F930E9446088DEAB0
:1050F0009AE00E94AD070F900F900F900F9081E003
:105100006FC0803109F49EC080F48E3009F096CED5
:1051100090915602892F8B7F92FF84608093560274
:1051200082FF8DC089E49CE081C0863109F49AC079
:10513000893109F083CE84ED98E00E94AD078BE9B8
:1051400098E00E94AD078FE598E00E94AD0789E2E4
:1051500098E00E94AD078EEF97E021C08A3249F1B6
:1051600090F4873211F128F48E3108F467CE8D5116
:105170001DC0893209F062CE8CE89CE00E94AD0728
:105180000E94C909BCCF833468F48A3308F0A1C0F7
:10519000853359F0883309F051CE8AE099E00E94B6
:1051A000AD07ADCF833409F049CE80E00E94ED26F3
:1051B000A6CF8CEA9CE00E94AD070E941C219FCFE5
:1051C00080915602807F8093560283EE98E00E9481
:1051D000AD0788EA9CE00E94AD0781E080936602FB
:1051E000DF91CF91089590915602892F8E7F90FF85
:1051F00081608093560280FF03C080E89CE0CFCF9F
:1052000083E79CE00E94AD0780915602817F8093E6
:10521000560275CF90915602892F8D7F91FF826043
:105220008093560281FF08C086E69CE00E94AD078D
:10523000809156028160EBCF88E59CE0B0CF89E396
:105240009CE0ADCF90915602892F877F93FF8860B5
:105250008093560283FF03C08DE29CE0E7CF80E29B
:105260009CE09DCF80EF97E00E94AD070E94031560
:105270001F928F9386ED97E09F938F930E9446082D
:1052800080912D011F928F938FEB97E09F938F93C7
:105290000E944608809173021F928F938CEA97E0D8
:1052A0009F938F930E9446080E9406229F938F939C
:1052B0007F936F9385E997E09F938F930E944608B1
:1052C0008DB79EB742960FB6F8949EBF0FBE8DBFA6
:1052D00016CF89536BCF80E008950C946B298E51C3
:1052E0008A3030F4E82FF0E0E057FE4F80810895D7
:1052F00080E00895CF93C82F809166028130C1F07D
:10530000882339F0823009F447C01092660280E0A9
:105310000DC00E94A61F8232D1F78C2F0E946B29EC
:1053200081111BC08C2F0E940B278170CF91089593
:105330000E94A61F823289F38C2F0E946D29811151
:105340001BC0C431D9F060F4CB3071F0C031D1F062
:1053500086E897E00E94AD0713C081E090E0E5CFBA
:10536000C93261F0C833A1F783EE98E00E94AD071F
:105370008CE897E00E94AD0781E0D7CF10926602DB
:1053800080E0D3CF0E94B32588E897E00E94AD0764
:1053900082E080936602F0CFC432C8F4CE3108F0C8
:1053A000BEC0CB30E1F040F4C73009F4CCC08AE293
:1053B00096E00E94AD0726C0C331C1F1C431B9F7F0
:1053C00080916502882351F1109265020AC0CB34A6
:1053D00009F4B7C0C8F4C93299F3C83341F70E9441
:1053E000B32580916502882309F4C4C01F928F936E
:1053F00084E296E09F938F930E9446080F900F904F
:105400000F900F9081E092CFC13509F494C0C2355E
:1054100009F48BC0CE3459F66AE08EC089E396E079
:105420000E94AD0781E08093660280CF83E196E021
:105430000E94AD0781E096E00E94AD0780912201B5
:105440001F928F938EEF95E09F938F930E94460853
:105450008CEF95E00E94AD078AEE95E00E94AD07C3
:10546000809121011F928F9387EE95E09F938F93F8
:105470000E94460885EE95E00E94AD0786ED95E016
:105480000E94AD07809120011F928F9383ED95E0DC
:105490009F938F930E94460881ED95E00E94AD078F
:1054A00080EC95E00E94AD0780911F011F928F93C1
:1054B0008DEB95E09F938F930E9446088BEB95E0D0
:1054C0000E94AD0786EA95E00E94AD0780911C011D
:1054D0001F928F9383EA95E09F938F930E944608D3
:1054E00081EA95E00E94AD078AE895E00E94AD0749
:1054F00080911B011F928F9387E895E09F938F9374
:105500000E94460885E895E00E94AD078DB79EB7DA
:1055100048960FB6F8949EBF0FBE8DBF62CF8C2FFA
:105520000E946F29809365025CCF61E080916502E3
:105530000E94CA2556CF61E0809165020E946E26C6
:1055400050CF6AE0F3CF8EE18093220182E3809313
:1055500021018AE08093200184E180931F0188E08B
:1055600080931C0188E280931B018CE296E00E94EC
:10557000AD0737CF81E296E01CCF8091720208958B
:105580009FB7F894109269029FBF9091C602943021
:1055900009F048C02091E9002F703091EC00932F62
:1055A000917030FD90E8922B25E02093E900209146
:1055B000EB0020FF34C02091EE0027FF30C0209187
:1055C0006702222321F02091E80025FF28C01092D5
:1055D000670226E03091E80035FF14C08093F100A7
:1055E0008091E80085FD27C08091E80080FFFCCF16
:1055F0008091E8008E778093E8009F709093E90097
:1056000080E008953091C602343049F43091EB00C7
:1056100035FD05C0215041F481E0809367029F7001
:105620009093E9008FEF0895EFE9FFE03197F1F7EC
:1056300000C00000CFCF8FB7F89421E0209369021B
:105640008FBFDBCFCF93DF9300D00F92CDB7DEB704
:105650009091C602943011F589837B836A8390937D
:10566000E9008FEF9091E800815095FD06C095ED1F
:105670009A95F1F700008111F5CF8091E80085FF40
:105680000DC050E040E063E070E0CE0101960E9462
:10569000FA2D8091E8008E778093E8000F900F90AC
:1056A0000F90DF91CF910895BC0184E00C94222BE0
:1056B000BC0183E00C94222B9C0184E08093E900E0
:1056C0009FEF8091E800915085FD06C085ED8A9599
:1056D000F1F700009111F5CF8091E80085FF0CC033
:1056E00050E040E066E070E0C9010E94FA2D809130
:1056F000E8008E778093E8000895CF93DF93EC0164
:1057000081E08093E9008FEF9091E800815095FD52
:1057100006C095ED9A95F1F700008111F5CF8091C3
:10572000E80085FF14C050E040E068E070E0CE0182
:105730000E94FA2D8091E8008E778093E80088E03F
:10574000FE01AAE6B2E001900D928A95E1F7DF91A1
:10575000CF910895CF93FC01603221F58091C6026C
:10576000843001F5C091E900CF702091EC00922FB8
:10577000917020FD90E8C92B82E08093E900809130
:10578000E80080FF0CC050E040E060E270E0CF0134
:105790000E94FA2D8091E8008E778093E800CF7008
:1057A000C093E900CF9108958DEE9CE00E94AD0773
:1057B0008091C502811109C00E94D92F0E94363004
:1057C0008091E20084608093E200089589EE9CE07D
:1057D0000E94AD071092C502089585EE9CE00C94DE
:1057E000AD0781EE9CE00C94AD078DED9CE00E942E
:1057F000AD070C94C221209168022F5F822F62E3D3
:105800000E94D932992319F02093680208951092CA
:105810006802809169028823F1F08091C602843089
:10582000C1F49091E9009F702091EC00822F81706B
:1058300020FD80E8892B95E09093E9009091EB00A2
:1058400090FF04C09091EE0097FD08C08F70809388
:10585000E9001092690208951092F1009091E80019
:1058600095FDFACF9091E80090FFF0CF9091E8007D
:105870009E779093E800EACF42E061EC81E00E94DD
:10588000552F42E261EC84E00E94552F42E261EC28
:1058900082E00E94552F42E260EC83E00E94552F87
:1058A00042E261EC85E00C94552F8091C802833070
:1058B00009F461C030F48130D1F1823009F49DC027
:1058C00008958A3009F489C08B3009F46FC089309B
:1058D00009F050C08091C702813209F04BC080911D
:1058E000CB029091CC02009719F0029709F042C0C8
:1058F0008091E800877F8093E8008091E80082FF34
:1059000035C09091F3008091F200029729F48091C4
:10591000F1008B7F813021F48091F100809372023D
:105920008091E8008B778093E8000C94892F809118
:10593000C702813AF9F48091E800877F8093E800FC
:105940008091CB029091CC02892B61F468E08AE6C9
:1059500092E070E00E94982E8091E8008B7780930F
:10596000E800089560E090E080E0F3CF8091C60207
:105970008111C3CF08958091C702813AD9F78091F0
:10598000CB029091CC02892BA9F78091E800877F08
:105990008093E8008091E80080FFFCCF80912D018A
:1059A0008093F1008091E8008E77BDCF8091C7028F
:1059B000813201F78091CB029091CC02892BD1F6F4
:1059C0008091E800877F8093E8000E94892F809172
:1059D000C90280932D010C94251A8091C70281324F
:1059E00049F68091E800877F8093E8000E94892F24
:1059F0008091CA028093730208958091C702813A10
:105A000009F0B8CF8091E800877F8093E80080910B
:105A1000E80080FFFCCF80917302C2CFCDB7DEB724
:105A2000A0970FB6F894DEBF0FBECDBF84B7877FB7
:105A300084BF0FB6F894A895809160008861809328
:105A40006000109260000FBE80E890E00FB6F894FE
:105A500080936100909361000FBE0E94A3150E9485
:105A6000D92F0E9436308091E20084608093E2005A
:105A700080EC9AE20E94552078940E94BE320E94E7
:105A8000AD1583E291E00E94FE148CEC9CE00E9434
:105A9000AD0713E08091C602853059F00E94DF15F2
:105AA0008091C6028430B1F00E94AB150E94AC1503
:105AB000F1CF88EC9CE00E94AD070E947A21809192
:105AC000C402882339F30E94AB21882319F30E9472
:105AD000E42DE0CF1093E9008091E80082FFE4CF4D
