:100000000C9447060C948E060C948E060C948E0667
:100010000C948E060C948E060C948E060C948E0610
:100020000C948E060C948E060C94762A0C944A2B13
:100030000C94B41C0C948E060C948E060C948E06B4
:100040000C948E060C948E060C948E060C948E06E0
:100050000C948E060C940B1D0C948E060C948E063C
:100060000C948E060C948E060C948E060C948E06C0
:100070000C948E060C948E060C948E060C948E06B0
:100080000C948E060C948E060C948E060C948E06A0
:100090000C94940F0C948E060C948E060C948E0681
:1000A0000C948E060C948E060C948E0600002F0085
:1000B0003500000030003200E200E0001E00330096
:1000C00004002E001F00360012001400200037002C
:1000D00008000D002100130018000E0022001C0073
:1000E0000C001B004D004E004A004B00390001532C
:1000F000E1002C00000029002B0000000000890016
:100100004C00000038002D003400870027000F004D
:1001100016001D002600150011001900250006001C
:1001200017001A0024000A000B0010002300090029
:1001300007000500500051004F0052008800940055
:10014000E5002A00000049005800000000000100FE
:100150000100000000000000010001003A00000062
:10016000000000003B000000000000003C00000018
:10017000000000003D000000000000003E00000004
:100180000000000001000100010001000100010069
:100190000100010000000100010000000000440017
:1001A0004500000055005600530000004300540075
:1001B00055005700420061005E005B004100600096
:1001C0005D005A0040005F005C0059003F00630082
:1001D0008C0062000100010001000100010001002B
:1001E0000100010000006700010000004445425585
:1001F000473A2064697361626C65642E0A00444565
:100200004255473A20656E61626C65642E0A000AA9
:100210000025303862003A200025303258000A723A
:100220002F632030313233343536370A000A002547
:1002300030325820006B6579626F6172645F72655D
:10024000706F72743A20000A0025303258006B65D6
:1002500079626F6172645F7365745F6C65643A2084
:1002600000290A002575002F002575005D2800254E
:10027000640020002564002000256400200025641F
:10028000007C0025303258006D6F7573656B6579A1
:10029000205B62746E7C782079207620685D2872FD
:1002A00065702F61636C293A205B006D6B5F776826
:1002B00065656C5F74696D655F746F5F6D617820F3
:1002C0003D2025640A006D6B5F776865656C5F6D26
:1002D00061785F7370656564203D2025640A006D58
:1002E0006B5F74696D655F746F5F6D6178203D2031
:1002F00025640A006D6B5F6D61785F73706565647E
:10030000203D2025640A006D6B5F696E746572760E
:10031000616C203D2025640A006D6B5F64656C6133
:1003200079203D2025640A006D6B5F776865656CF8
:100330005F74696D655F746F5F6D6178203D202526
:10034000640A006D6B5F776865656C5F6D61785FEF
:100350007370656564203D2025640A006D6B5F74D1
:10036000696D655F746F5F6D6178203D2025640A5B
:10037000006D6B5F6D61785F7370656564203D2013
:1003800025640A006D6B5F696E74657276616C201E
:100390003D2025640A006D6B5F64656C6179203DCA
:1003A0002025640A000A00257500363A2077686522
:1003B000656C5F74696D655F746F5F6D61783A201D
:1003C000000A00257500353A20776865656C5F6D19
:1003D00061785F73706565643A20000A00257500D6
:1003E000343A2074696D655F746F5F6D61783A208F
:1003F000000A00257500333A206D61785F737065DF
:1004000065643A20000A00257500323A20696E744E
:10041000657276616C286D73293A20000A00257593
:1004200000313A2064656C6179282A31306D732976
:100430003A20000A092D2056616C756573202D0A3B
:10044000004D3E004D25643E20003F007365742042
:1004500064656661756C740A00433E2000776865C8
:1004600072652064656C74613A20637572736F7293
:100470003D25642C20776865656C3D25640A5365CD
:100480006520687474703A2F2F656E2E77696B69DA
:1004900070656469612E6F72672F77696B692F4D84
:1004A0006F7573655F6B6579730A000A092D204DBE
:1004B0006F7573656B6579202D0A4553432F713A2B
:1004C00009717569740A313A0964656C6179282A81
:1004D00031306D73290A323A09696E74657276613A
:1004E0006C286D73290A333A096D61785F73706502
:1004F00065640A343A0974696D655F746F5F6D6194
:10050000780A353A09776865656C5F6D61785F7365
:10051000706565640A363A09776865656C5F746969
:100520006D655F746F5F6D61780A0A703A09707269
:10053000696E742076616C7565730A643A09736537
:10054000742064656661756C74730A75703A092B62
:10055000310A646F776E3A092D310A706775703A07
:10056000092B31300A7067646F776E3A092D31308C
:100570000A0A7370656564203D2064656C746120AF
:100580002A206D61785F7370656564202A20287267
:100590006570656174202F2074696D655F746F5F8D
:1005A0006D6178290A003F004D3E2000433E200047
:1005B0004C25640A0074696D65725F72656164330D
:1005C0003228293A202530346C580A006B6579624C
:1005D0006F6172645F69646C653A2025580A006B2C
:1005E0006579626F6172645F70726F746F636F6C54
:1005F0003A2025580A00686F73745F6B6579626FE3
:100600006172645F6C65647328293A2025580A007A
:100610000A092D20537461747573202D0A00474315
:10062000433A20382E342E30204156522D4C494228
:10063000433A20322E302E30204156525F415243F1
:10064000483A20617672350A004F5054494F4E5354
:100650003A204C554641204D4F5553454B45592066
:1006600045585452414B455920434F4E534F4C45EA
:1006700020434F4D4D414E4420343039360A00421C
:1006800055494C443A2022302E362E3436332D3301
:100690003431302D673763613135362D64697274BA
:1006A0007922202831373A32373A3539204A756C69
:1006B0002020342032303231290A005649443A2071
:1006C00030784645454428736174726F6D692920FE
:1006D0005049443A2030783030303028746C737090
:1006E0006C6974313829205645523A2030783030C0
:1006F00030310A000A092D2056657273696F6E2029
:100700002D0A000A092D20436F6E736F6C65202D32
:100710000A4553432F713A09717569740A6D3A0994
:100720006D6F7573656B65790A000A092D204D613F
:10073000676963202D0A443A094465627567204D54
:1007400065737361676520546F67676C650A583A13
:10075000094D6174726978204465627567204D6F38
:10076000646520546F67676C65202D2053686F7730
:10077000206B65797072657373657320696E206D87
:10078000617472697820677269640A4B3A094B6533
:1007900079626F61726420446562756720546F6787
:1007A000676C65202D2053686F77206B65797072B8
:1007B000657373207265706F72740A4D3A094465EF
:1007C000627567204D6F75736520546F67676C6540
:1007D0000A563A0956657273696F6E0A533A09539D
:1007E00074617475730A433A09416374697661747C
:1007F0006520436F6E736F6C65204D6F64650A46AC
:10080000312D4631303A0953776974636820746F2B
:10081000204C6179657220302D39202846313020F6
:100820003D204C30290A302D393A095377697463D9
:100830006820746F204C6179657220302D390A4729
:10084000524156453A0953776974636820746F20A2
:100850004C6179657220302028616C7465726E611C
:100860007465290A423A094A756D7020746F2042F6
:100870006F6F746C6F616465720A4553433A094A3D
:10088000756D7020746F20426F6F746C6F6164655A
:10089000722028616C7465726E617465290A453A2C
:1008A000095072696E7420454550524F4D20536572
:1008B0007474696E67730A4253504143453A094361
:1008C0006C65617220454550524F4D0A000A002563
:1008D00075002E6E6B726F3A20000A002575002E8F
:1008E000737761705F6261636B736C6173685F6281
:1008F00061636B73706163653A20000A00257500BF
:100900002E737761705F67726176655F6573633AB6
:1009100020000A002575002E6E6F5F6775693A200A
:10092000000A002575002E737761705F72616C7428
:100930005F726775693A20000A002575002E73778B
:1009400061705F6C616C745F6C6775693A20000A56
:10095000002575002E737761705F7263746C5F722F
:100960006775693A20000A002575002E737761705B
:100970005F6C63746C5F6C6775693A20000A0025D0
:1009800075002E636170736C6F636B5F746F5F6370
:100990006F6E74726F6C3A20000A002575002E731A
:1009A0007761705F636F6E74726F6C5F6361707399
:1009B0006C6F636B3A20000A0025303258006B657B
:1009C000796D61705F636F6E6669672E7261773AE9
:1009D00020000A002575002E6D6F7573653A2000A2
:1009E0000A002575002E6B6579626F6172643A208A
:1009F000000A002575002E6D61747269783A200036
:100A00000A002575002E656E61626C653A20000A49
:100A100000253032580064656275675F636F6E66EB
:100A200069672E7261773A20000A002575006465B7
:100A30006661756C745F6C617965723A20003F0085
:100A40000A6D6F7573653A206F66660A000A6D6FEE
:100A50007573653A206F6E0A000A6B6579626F6183
:100A600072643A206F66660A000A6B6579626F618C
:100A700072643A206F6E0A000A6D61747269783A86
:100A8000206F66660A000A6D61747269783A206F99
:100A90006E0A000A64656275673A206F66660A002E
:100AA0000A64656275673A206F6E0A000A0A4A7521
:100AB0006D70696E6720746F20626F6F746C6F6108
:100AC0006465722E2E2E2000433E2000436C65612B
:100AD00072696E6720454550524F4D0A0065656347
:100AE0006F6E6669673A0A005B735D004B657962F9
:100AF0006F6172642073746172742E0A005B575DBB
:100B0000005B535D005B525D005B445D005B435DD9
:100B100000140374006C00730070006C00690074B2
:100B2000003100380000001003730061007400728F
:100B3000006F006D00690000000403090409025BF6
:100B400000030100A0FA09040000010301010009EB
:100B500021110100012240000705810308000A0954
:100B6000040100010300000009211101000122819C
:100B7000000705820320000A0904020002030000A6
:100B80000009211101000122220007058303200032
:100B900001070503032000011201100100000008F5
:100BA000EDFE00000100010200010631FF0974A101
:100BB000010975150026FF00952075088102097648
:100BC000150026FF00952075089102C00501090255
:100BD000A10185020901A1000509190129051500D6
:100BE00025019505750181029501750381010501B6
:100BF000093009311581257F95027508810609386C
:100C00001581257F950175088106050C0A380215A6
:100C100081257F950175088106C0C005010980A165
:100C200001850319012AB700150126B70095017542
:100C3000108100C0050C0901A101850419012AA039
:100C400002150126A002950175108100C005010959
:100C500006A101050719E029E7150025019508758A
:100C60000181029501750881010507190029FF1509
:100C70000026FF0095067508810005081901290561
:100C8000950575019102950175039101C00011242C
:100C90001FBECFEFDAE0DEBFCDBF04B603FE27C034
:100CA0008091CB029091CC02A091CD02B091CE0266
:100CB0008730904BA740B04BD1F41092CB021092EA
:100CC000CC021092CD021092CE0214BE84B7877F60
:100CD00084BF0FB6F894A8958091600088618093D6
:100CE0006000109260000FBEE0E0F8E3099511E0AB
:100CF000A0E0B1E0E2E4FBE502C005900D92AA3A63
:100D0000B107D9F722E0AAEAB1E001C01D92AB3CDD
:100D1000B207E1F70E94AD270C94772D0C940000E8
:100D2000FF93EF93E091AA01F091AB01309709F0A6
:100D30000995EF91FF910895FC018591803011F0A4
:100D4000EFDFFBCF0895FF27E0E230E247FF0CC062
:100D5000419597FF09C0EDE260957095809590955B
:100D6000611D711D811D911D27FF02C0219530E37A
:100D700050E2AA27660F771F881F991FAA1FA41782
:100D800010F0A41B63955A95A9F7AA3008F0A95F43
:100D9000A05DAF93F395611571058105910541F74C
:100DA000ED3211F4EF93F395F21718F43F93F395A6
:100DB000FBCF8F91B5DFFA95E1F70895E991F991AD
:100DC0008591803021F0853219F0AADFF9CF08959E
:100DD00020E0E89455915532C1F3503311F46894F2
:100DE00055915A3348F4505390F3220F022E220F9C
:100DF000220F200D250FF4CF0EF4219589919991A2
:100E0000533619F3533729F1533559F1BC0188276B
:100E10009927E8945C3621F48991999168945591C9
:100E2000543639F446EF7EF077FF0DC08FEF9FEF19
:100E30000AC055374AE039F0583540E121F05236C2
:100E400042E009F00895FF93EF937DDFEF91FF916A
:100E5000B7CFFF93EF93FC0181918030B9F360DF4E
:100E6000FBCFFF93EF9368DFF1CFDF93CF93CDB745
:100E7000DEB72596A3DFCF91DF91089581E0089535
:100E800081E008950C94400708950C9444071F9343
:100E9000CF93DF9300D000D00F92CDB7DEB7498358
:100EA0005A836B833091D20189819A8131111DC09F
:100EB0006623B9F02223A9F00E94011A182F682F87
:100EC00089819A810E94AE1969817A81812F0F9060
:100ED0000F900F900F900F90DF91CF911F910C9476
:100EE0000D080E94DA19182FEFCF0E94011A6981AC
:100EF0007A81EDCFFC01262F40815181628173817F
:100F000084810C944707CF93DF93EC0160E00E944B
:100F10007A07BE01DF91CF910C9445070E94621BB6
:100F2000811102C00E94061C0C94190A0C941C0A20
:100F300008950E9415150E9498072FEF84E39CE006
:100F4000215080409040E1F700C000000C942F1D1C
:100F50000F931F93CF93DF93EC0161E00E947A0718
:100F60008C01BE010E944207882311F1BE01C80115
:100F70000E94C70C8823E1F0BE01C8010E94190D30
:100F80008823B1F0BE01C8010E943C0E882381F085
:100F90008A81882341F101308CE5180779F00F3DF3
:100FA0008CE51807E9F001151C45E9F40E94990742
:100FB00080E0DF91CF911F910F910895909152029F
:100FC000892F8E7F90FF81608093520280FF05C041
:100FD0008EEF91E00E949C06EBCF8CEE91E0FACF71
:100FE0000E94061CE5CFCE01DF91CF911F910F919A
:100FF0000C943E0708950C94FA0781E008950C9430
:10100000FD07CF93C82F0E94FB078C2FCF910C9424
:10101000FF0790E080E008950895E72FF0E094E165
:10102000899FE00DF11D1124EE0FFF1FEE0FFF1F32
:10103000E60FF11DEE0FFF1FE455FF4F85919491D0
:101040000895FC01EE0FFF1FE15FFD4F8591949124
:101050000895CF93DF930E940D080E943E09EC0192
:10106000811520E5920708F042C0811530E493070E
:1010700008F0BDC0883E910528F5803E910508F036
:101080009DC0883A910588F4853A910508F08FC093
:101090008130910509F492C0009709F48FC004973C
:1010A00008F08CC0D0E0C0E089C08F3B910508F407
:1010B00089C0805C9109C03CD105A0F30E94210841
:1010C000EC017CC08115904250F4C11581E0D80735
:1010D00008F074C0C03FD10528F3D0656FC0C115BA
:1010E00090E3D90708F079C0CE019F70E7CF811552
:1010F00025E5920758F5811534E5930708F0A6C059
:10110000811542E5940750F4C11581E5D80708F42C
:1011100071C0DC2FCC27C16FD06A50C0982F969534
:1011200096959E0123703327C115D34508F07FC0E3
:10113000C1E0D0E002C0CC0FDD1F2A95E2F720E22B
:10114000929FC0011124C82BD92B6FC0C11589E50E
:10115000D807A8F4C11598E5D90708F07CC0C115D7
:1011600026E5D20708F09ECF8C2F0E94D509C82F04
:10117000D0E0DC2FCC27CC27DF71D0621FC0C11597
:101180003AE5D30708F46CC0CE0190568115904221
:1011900008F088CF8D2F8F710E94D50990E0982F8D
:1011A000882788279F719C012C2BE901E6CFC55A1F
:1011B000D0E0C45ADE4FC881D0E0D064CE01DF91C8
:1011C000CF910895C85AD0E0CC0FDD1FC25DDE4F2D
:1011D0000990D881C02DD464F1CFCE019927D3FFD7
:1011E00003C0EC01D86CEACFEC01D06CE7CFDF7024
:1011F000D06AE4CFCE01E4E096958795EA95E1F7D1
:1012000083702C2F26952695237090E2299F9001BC
:101210001124382B8C2F8370C1E0D0E002C0CC0F9A
:10122000DD1F8A95E2F7C22BD32BDC68C7CFC1E064
:10123000D0E002C0CC0FDD1F2A95E2F730E2939F89
:10124000C0011124C82BD92BDA68B8CFD82FCC27EE
:10125000C46FD06AB3CFDC2FCC27C06FD06AAECFBB
:101260008C2F8F700E94D50934E0D695C7953A959A
:10127000E1F7CF709C2FEC01D069A0CF82389105A7
:10128000B1F1B0F48133910509F475C048F48932A5
:10129000910509F469C08A32910509F473C0089573
:1012A0008533910509F459C08933910501F10895F9
:1012B000833E9105A9F138F4803E9105F9F0823E14
:1012C000910549F10895863E9105A9F1873E910562
:1012D000C9F1843E910519F52091BD0221FF1FC07F
:1012E0008091BC0284FD14C087EE90E008952091A7
:1012F000BC022370A1F080EE90E008952091BC0222
:1013000020FD47C03091BD0230FF09C024FF44C01A
:1013100090E080E004C02091BC0222FDF7CF089548
:101320002091BC0222FD3BC03091BD0230FDE3CFD5
:1013300024FFF5CFEDCF2091BC0223FFF0CF24FD99
:10134000E7CFD2CF2091BC0223FD2CC03091BD024B
:1013500031FFEECF84EE90E008952091BC0225FF8E
:10136000DECF89E290E008952091BC0225FFD7CF1F
:1013700085E390E008952091BC0226FFD0CF8AE259
:1013800090E008952091BC0226FFC9CF81E390E050
:10139000089589E390E0089583EE90E0089582EE49
:1013A00090E0089586EE90E008959091BC0292FF3F
:1013B00006C0282F28712830F9F4877F846093FFB6
:1013C00006C0282F28712831F1F4877E846120918E
:1013D000BD0220FF06C0382F38713830D9F4877F1E
:1013E000816021FF06C0282F28712831D1F4877E23
:1013F000816194FD877E0895282F24712430F9F6A9
:101400008B7F8860DCCF282F2471243101F78B7EFD
:101410008861DDCF382F3171313019F78E7F8860C8
:10142000E0CF282F2171213121F78E7E8861E1CF15
:1014300008950C94180A08950C941B0AE82FF0E004
:10144000EC57FD4F80810895CF92DF92EF92FF928B
:101450000F931F93CF93DF938EE192E00E949C063F
:1014600084E8E82E82E0F82ED0E0C0E099E1C92EB1
:1014700092E0D92E01E112E0DF93CF93DF92CF9279
:101480000E94350786E192E00E949C06F701819157
:101490007F010E944A1B1F928F931F930F930E94FC
:1014A00035078FE092E00E949C0621968DB79EB78B
:1014B00008960FB6F8949EBF0FBE8DBFC431D105FC
:1014C000D9F6DF91CF911F910F91FF90EF90DF90B0
:1014D000CF90089580EA8A95F1F70895F894E82F5F
:1014E000E295EF70F0E031A1282F2F7081E090E0BD
:1014F00001C0880F2A95EAF7982F9095932391A31E
:1015000092A1892B82A3789408950895EF92FF9277
:101510000F931F93CF93DF93CDB7DEB764970FB6CA
:10152000F894DEBF0FBECDBF0E940E0C8091180153
:10153000811131C0FE013B968AE0DF011D928A9540
:10154000E9F786EF898387EF8A8381E38B8383E3DF
:101550008C8382E38D8386E38E8385E38F8385EF9F
:10156000888784EF898784E38A873A97A4E0B1E08B
:10157000CE01459621912D93E817F907D9F786EC0E
:101580008093000187E98093010186E68093020140
:1015900084E980930301809118019AE0811190E021
:1015A000909399028AE0891B8093980204E011E0ED
:1015B000F80181918F010E946E0AF1E00E301F0741
:1015C000B9F700E011E084E0E82E81E0F82ED801C0
:1015D0008D918D010E946E0AE016F106C1F7E0E7D9
:1015E000F2E0A4E8B2E011921D9282E0E438F8073C
:1015F000D1F78AE00E94B90B0E948E0764960FB65D
:10160000F894DEBF0FBECDBFDF91CF911F910F9138
:10161000FF90EF900C94180C0E94F00B882309F1B6
:101620008091980290E08C579D4F0E941F0C811171
:1016300015C08091AC018F5F8093AC01863060F063
:10164000E0919802F0E0EC57FD4F90E080E01192BD
:1016500001968A309105D9F70C9496071092AC0147
:10166000FBCF8091990290E08C579D4F0E942E0CE9
:101670000C94850AAF92BF92CF92DF92EF92FF92C5
:101680000F931F93CF93DF93C4E0D1E000E712E004
:101690008EE0C82E81E0D82EB12CEE24E394F12CFC
:1016A0008991F894E82FE295EF70F0E021A18F7016
:1016B000A70102C0440F551F8A95E2F7CA01922F75
:1016C000982B91A392A18095892382A378940E945C
:1016D0006A0AE0E0F1E030E020E0A12C4191A42F83
:1016E000A295AF70B0E090968C9190E04F7002C0E0
:1016F000959587954A95E2F780FD37C08E2D022E8D
:1017000001C0880F0A94EAF7A82A2F5F3F4F2430C0
:10171000310521F7FE01319780810E946E0AF801A0
:101720008081A81621F1A08281E0B82A0F5F1F4FA7
:10173000CC16DD0609F0B4CF6091990270E06C57C9
:101740007D4F2B2D4AE080E792E00E94BA0B0E9469
:101750000C0B8B2DDF91CF911F910F91FF90EF908C
:10176000DF90CF90BF90AF90089580E0CDCF80E024
:10177000DCCF0895FF920F931F93CF93DF93F82E42
:10178000092F162FD72FC42F222349F081E08093F1
:10179000AF010E94E41C9093AE018093AD01809153
:1017A000AF018823A1F08091AD019091AE010E941C
:1017B000FC1C069760F0EF2DF02FA12FBD2FCE0F50
:1017C000DF2FD11DEC17FD0741F41092AF01DF911F
:1017D000CF911F910F91FF90089581918D93F2CF3A
:1017E0008091B001811111C08091D80080618093F7
:1017F000D8008AE18A95F1F700C09091D900892F2D
:10180000817090FF82E08093B00181E09091B001FF
:10181000913009F080E008950C94F00B0E940C0CBC
:10182000809318010E94F00B81110C94370C0895DD
:101830000E94F00B811102C00C94390C08950F9393
:101840001F9304E610E02AE030E0AC0160E082E3A0
:101850000E943F0F81E01F910F910895FC019AE0D3
:10186000AAE9B2E001900D929A95E1F708950C94DF
:10187000660E82E30C948E0FAF92BF92CF92DF92EE
:10188000EF92FF920F931F93CF93DF937C015B0145
:10189000C42FD22FFC0182818823F9F04093B30139
:1018A0000E94E41C9093B2018093B10180E28C0FFE
:1018B000883008F061C0C77081E001C0880FCA9508
:1018C000EAF7DF91CF911F910F91FF90EF90DF909A
:1018D000CF90BF90AF900C9499121091B301141354
:1018E00040C08091B1019091B2010E94FC1C6C013A
:1018F000B701C5010E948B17C816D90690F5C0E242
:10190000CD0F1D17B9F080E2810F883040F41770B9
:1019100081E001C0880F1A95EAF70E94A012C83032
:1019200048F481E09D2F977001C0880F9A95EAF7DF
:101930000E949912802F0E948612C830E8F4D77056
:1019400081E001C0880FDA95EAF7DF91CF911F910E
:101950000F91FF90EF90DF90CF90BF90AF900C94DD
:10196000A01280E28C0F883038F4C77081E001C08B
:10197000880FCA95EAF7E9CFDF91CF911F910F91B8
:10198000FF90EF90DF90CF90BF90AF9008950F93AE
:101990009C01CB01243F4CE5340759F1A8F4293DC3
:1019A000FCE53F0701F12A3D4CE53407D1F1283D24
:1019B0003C4591F406E221EE41EE68ED7CE50E94A3
:1019C0003C0C80E00F910895263FFCE53F07E9F0CD
:1019D000B0F0273F3C45F9F0FC018281882339F1C2
:1019E0001092B301EFCF07E225EE45EE69ED7CE5FD
:1019F000E6CF06E221EE40EE64EF7CE5E0CF07E2C1
:101A000025EE44EE65EF7CE5DACF06E221EE42EE0C
:101A100066EF7CE5D4CF07E225EE46EE67EF7CE586
:101A2000CECF08E221E045EE6AED7CE5C8CF81E04B
:101A3000C9CFCF93DF93EC01FB018281882309F4A6
:101A400019C1C230FCE5DF07C0F1C6319CE5D907FA
:101A500030F09E012B5F3C452930310570F50E9426
:101A6000751B9093BD028093BC02C031ECE5DE078C
:101A700009F4CFC008F05BC0C8308CE5D80709F482
:101A8000B6C088F5C430ECE5DE0709F4A8C0C0F4A0
:101A9000C2308CE5D80709F49CC08091BC028260FA
:101AA000C330DC4509F498C08091BC029091BD021E
:101AB0000E94831B0E94151580E0DF91CF9108954D
:101AC0008091BC028061C630ECE5DE0709F484C079
:101AD0008091BC028860C730DC4508F47DC08091ED
:101AE000BC02806279C0CC308CE5D80709F489C08B
:101AF00070F48091BC028C60CA30ECE5DE0709F41A
:101B00006BC008F478C08091BC028E7F65C0CE3077
:101B10008CE5D80709F479C08091BC028B7FCF3067
:101B2000DC4508F459C08091BC028F7E55C0CC3F83
:101B3000ECE5DE0709F457C030F5C3318CE5D80772
:101B400009F46FC078F4C131ECE5DE0709F465C033
:101B5000C231DC4509F0A8CF0E9415158091BC0266
:101B60008F773AC0C5318CE5D80709F462C008F414
:101B700076C08091BD028160CB3FDC4509F094CFF7
:101B80008093BD0291CFC115FDE5DF0709F44DC07B
:101B900088F48091BD028D7FCE3F9CE5D90781F30B
:101BA0008091BD028E7FCF3FDC4550F38091BD0216
:101BB0008360E6CFC230FDE5DF0709F459C008F4C1
:101BC00044C080E0C330DD4509F06ECF0E94081CA0
:101BD0006BCF8091BC0281608093BC0265CF809105
:101BE000BC028460F9CF8091BD028260C9CF809130
:101BF000BC028064F1CF0E9415158091BC02806800
:101C0000EBCF8091BC028D7FE7CF8091BC02877FB4
:101C1000E3CF8091BC028F7DDFCF8091BC028F7BB0
:101C2000DBCF8091BC02837FD7CF8091BD028C7FB8
:101C3000A7CF8091BC0282FB992790F921E09227DF
:101C400090FB82F990FB83F9C7CF8091BD02982F5A
:101C5000909591708E7F892B90FB81F991CF0E9496
:101C600015159091BC02892F97FB87F98058B4CF46
:101C700081E0ACCF81E021CFCF93DF93EB018631C0
:101C80009C4511F50E94961A9A81992399F08A7AB7
:101C900091E009F490E09093B401811109C089E2C8
:101CA0000E94711A0E94E21A80E0DF91CF9108959C
:101CB00085E3F6CF8091B401811104C089E20E94CE
:101CC000781AF0CF85E3FBCF81E0EFCF1092B90017
:101CD00088E48093B8000895EF92FF920F931F93CA
:101CE000CF93DF93182FEB011092BC0084EA80930E
:101CF000BC000E94E41C7C018091BC0087FF27C0CF
:101D00008091B900887F883029F08091B900887F60
:101D10008031D9F51093BB0084E88093BC000E9409
:101D2000E41C8C018091BC0087FF24C02091B90085
:101D3000287F90E080E02831B1F081E090E020340D
:101D400011F490E080E09195819591090CC0CF3F0E
:101D5000DC0791F20E94E41C8E199F098C179D07E5
:101D600058F28EEF9FEFDF91CF911F910F91FF906F
:101D7000EF900895CF3FDC07A9F20E94E41C801B7E
:101D8000910B8C179D0770F2ECCF8FEF9FEFEBCF8D
:101D90000F931F93CF93DF93EB018093BB0084E8F5
:101DA0008093BC000E94E41C8C018091BC0087FFE2
:101DB00011C02091B900287F81E090E0283211F411
:101DC00090E080E0919581959109DF91CF911F91ED
:101DD0000F910895CF3FDC0741F30E94E41C801B64
:101DE000910B8C179D0708F38EEF9FEFEECF0F93AB
:101DF0001F93CF93DF93EC0184EC8093BC000E948F
:101E0000E41C8C018091BC0087FF08C08091BB005E
:101E100090E0DF91CF911F910F910895CF3FDC07A4
:101E200089F30E94E41C801B910B8C179D0750F3D3
:101E30008EEF9FEFEECF0F931F93CF93DF93EC01C5
:101E400084E88093BC000E94E41C8C018091BC005B
:101E500087FF08C08091BB0090E0DF91CF911F9178
:101E60000F910895CF3FDC0789F30E94E41C801B8B
:101E7000910B8C179D0750F38EEF9FEFEECFCF9213
:101E8000DF92EF92FF920F931F93CF93DF93F82E81
:101E9000E62EEA016901B8010E946C0E97FD15C09B
:101EA000B8018E2D0E94C80E97FD0FC0B8018F2D6E
:101EB00081600E946C0EF12CE12C21E0C21AD10845
:101EC000EC14FD0400F597FF11C024E92093BC0039
:101ED0001816190614F490E080E0DF91CF911F915D
:101EE0000F91FF90EF90DF90CF900895C8010E946E
:101EF000F70E97FD04C0FE01EE0DFF1D80832FEF4E
:101F0000E21AF20ADDCF97FDE0CFC8010E941B0F55
:101F100097FDDBCFCC0DDD1D8883D7CF8093BA0032
:101F200085EC8093BC0008951F921FB61F92112468
:101F30008F939F93EF93FF938091B900887F8038B0
:101F4000C1F038F4882309F448C0803679F081E084
:101F500022C0883A11F0883BD1F7E091B601F0E059
:101F6000E656FD4F80818093BB0031C01092B501D1
:101F7000EECF8091B501811122C08091BB0080938A
:101F8000B6018091B6018E31C0F01092B60180E0AA
:101F900091E09093B5019091BC008295880F880FD5
:101FA000807C892B85688093BC00FF91EF919F9185
:101FB0008F911F901FBE1F90189581E0E9CFE0918F
:101FC000B601F0E08091BB00E656FD4F8083809122
:101FD000B6018F5F8093B601BACF1092BC00B7CF25
:101FE0009093BC018093BB010895E091BB01F091F7
:101FF000BC01309721F00190F081E02D099480E040
:102000000895EF92FF920F931F93CF93DF938C016C
:10201000E091BB01F091BC013097C1F10280F381E6
:10202000E02D09958091520282FF30C080FF04C0EC
:1020300085E392E00E949C06D0E0C0E08FE2E82EAB
:1020400082E0F82E8091520280FF0EC0F801EC0F62
:10205000FD1F80811F928F93FF92EF920E943507A0
:102060000F900F900F900F902196C830D10551F727
:102070008091520280FF0AC08DE292E0DF91CF9101
:102080001F910F91FF90EF900C949C06DF91CF91E0
:102090001F910F91FF90EF900895E091BB01F09197
:1020A000BC01309739F022E0DC012C930480F581EB
:1020B000E02D099408952091B9013091BA012817B3
:1020C000390771F09093BA018093B901E091BB0197
:1020D000F091BC01309721F00680F781E02D099442
:1020E00008952091B7013091B8012817390771F090
:1020F0009093B8018093B701E091BB01F091BC01CE
:10210000309721F00084F185E02D0994089585B77A
:10211000806885BF85B7806885BF08950895089554
:102120000C948E1008950C9492100E9487100E94B7
:102130008F100C9490100C94F00B089508950E9449
:10214000DB1C0E94860A0E94401D0C949310CF93C2
:10215000C82F8091520282FF1EC080FF1CC08EE4F7
:1021600092E00E949C068091520280FF14C01F9250
:10217000CF9389E492E09F938F930E9435078091DB
:1021800052020F900F900F900F9080FF04C087E4D1
:1021900092E00E949C068C2FCF910C940108BF9274
:1021A000CF92DF92EF92FF920F931F93CF93DF9323
:1021B000CDB7DEB72A970FB6F894DEBF0FBECDBFFE
:1021C0000E949D100E949E100E943A0B0E949B103C
:1021D000882309F45EC08EEBC82E81E0D82E10E073
:1021E00000E0B02E802F0E941E0AE82EF601F1902A
:1021F0006F01F81609F447C08091520281FD0E94D8
:10220000240A9F2D9E2580E0FF24F394292F2F215F
:10221000B1F18E83BF82EF2081E009F480E08887EE
:102220000E94E41C8160782F9A8789874E815F81A4
:1022300068858A850E946A11F801E254FE4F808108
:10224000F826F0820E946D1F0E94F50F9091BD014B
:10225000891781F10E94F50F8093BD012A960FB670
:10226000F894DEBF0FBECDBFDF91CF911F910F91CC
:10227000FF90EF90DF90CF90BF900C94A7108F5FEE
:10228000FF0C843019F60F5F1F4F0431110509F060
:10229000A8CF8FEF89838A831B820E94E41C816010
:1022A000782F9D838C8349815A816B818D810E9417
:1022B0006A11C8CF2A960FB6F894DEBF0FBECDBF05
:1022C000DF91CF911F910F91FF90EF90DF90CF9012
:1022D000BF900895CF93DF93CDB7DEB72B970FB69E
:1022E000F894DEBF0FBECDBF4F83588769877A87CA
:1022F0008B871E821D8285E0FE013796DE011196D6
:1023000001900D928A95E1F749815A816B817C8118
:102310008D819E812B960FB6F894DEBF0FBECDBF88
:10232000DF91CF910C948E17FC01808191810C94E8
:10233000431ACF93C82F882309F490C08238C1F480
:102340000E94F50F81FD8AC089E30E94711A0E94E4
:10235000E21A2FEF81EE94E0215080409040E1F7A7
:1023600000C0000089E30E94781ACF910C94E21A11
:102370008338A1F40E94F50F80FD70C083E50E94B0
:10238000711A0E94E21A2FEF81EE94E021508040F2
:102390009040E1F700C0000083E5E5CF8438A1F468
:1023A0000E94F50F82FD5AC087E40E94711A0E94B4
:1023B000E21A2FEF81EE94E0215080409040E1F747
:1023C00000C0000087E4CFCF8CEF8C0F813AB8F4C7
:1023D0008C2F0E944E24811141C06C2F80911901D5
:1023E00090911A010E941F1C882329F08C2F0E94B3
:1023F000781A0E94E21A8C2F0E94711AB6CF80E2DE
:102400008C0F883048F4C77081E001C0880FCA95EE
:10241000EAF70E94991AA9CFEBE5EC0FE33040F4FC
:10242000F0E0E357FE4F808190E0CF910C945B1079
:10243000E8E5EC0FE73150F4F0E0EE0FFF1FE15A52
:10244000FE4F80819181CF910C947110C03F30F08C
:102450008C2F0E94E51DCF910C94D01ECF91089532
:10246000882309F452C0823871F40E94F50F81FF6D
:102470004CC089E30E94711A0E94E21A89E30E940B
:10248000781A0C94E21A833859F40E94F50F80FFF1
:102490003CC083E50E94711A0E94E21A83E5EFCFE7
:1024A000843859F40E94F50F82FF2FC087E40E9400
:1024B000711A0E94E21A87E4E2CF9CEF980F913ADA
:1024C000F0F290E2980F983050F4877091E001C0DC
:1024D000990F8A95EAF7892F0E949F1AD2CF9BE520
:1024E000980F933020F490E080E00C945B1098E516
:1024F000980F973120F490E080E00C947110803FA9
:1025000020F00E944D1E0C94D01E0895CF93C82F2A
:102510000E949911C93349F42FEF87EE93E02150BF
:1025200080409040E1F700C000008C2FCF910C94C8
:102530003012882321F00E94991A0C94E21A08950F
:10254000882321F00E949F1A0C94E21A0895BF92EA
:10255000CF92DF92EF92FF920F931F93CF93DF936F
:102560006C01D62FC72FFC01058102950F701281D7
:1025700011110E94B61A0E948F1AE82E882391F03A
:102580001123D1F08C2F807F803421F080E28D0FD9
:10259000883090F082E00E942D1B0E948F1A91E0FB
:1025A000E82EE926BC2EB2949FE0B922EB2DF0E094
:1025B000E758F24D0C941B2DE12CF4CF0C2F0F702B
:1025C000C07F11F00295007F1123A9F0002359F07C
:1025D00080E28D0F883010F0D11109C0802F0E9449
:1025E000991A0E94E21A8D2F0E94991114C0802F0F
:1025F0000E94A91AF6CF8D2F0E943012002359F0A5
:1026000080E28D0F883010F0D1112CC0802F0E94F5
:102610009F1A0E94E21A2B2D2850330B24303105CB
:1026200020F40E94F50F0E940108EE2009F49EC1DB
:102630000E948B1A80FD9AC1F60112820E94851AAF
:102640000E941219C6010E94D7140E94851ADF91B8
:10265000CF911F910F91FF90EF90DF90CF90BF909F
:102660000C943319802F0E94AF1AD3CFFC2FFF7028
:10267000FF2EC07FC03219F0F29480EFF822DD23E4
:1026800069F0D13049F1112391F1002351F1F601A4
:10269000858180FFA8CF8F70858323C0112381F0AF
:1026A000011106C00E94C91A8F290E949912B3CF46
:1026B0000130C1F70E94C91A8F290E94CF1AABCFEF
:1026C000011106C00E94D81A8F2D0E94A012A3CF1C
:1026D000013009F4A0CFF6CF112329F0063008F01D
:1026E0009ACF8F2DE2CF053008F095CFEDCF0023A4
:1026F00059F3D93349F4FFEF27EE33E0F15020408E
:102700003040E1F700C000008D2F0E94301283CFCF
:102710008C2F86958695837069F0813009F07BCF88
:102720008D2F9C2F9370111102C090E080E00E94C9
:10273000711071CF8D2F9C2F9370111102C090E0FA
:1027400080E00E945B1067CF8D2F112329F00E943B
:10275000E51D0E94D01E5FCF0E944D1EFACF8C2F28
:10276000837009F041C0111156CF4D2F4295469507
:102770004770440F440F0D2F0F7010E030E020E041
:10278000042E04C0000F111F221F331F0A94D2F71A
:1027900060E070E0CB01D4FF0FC06FE070E080E03C
:1027A00090E004C0660F771F881F991F4A95D2F7E3
:1027B0006095709580959095C695C695C370602B71
:1027C000712B822B932BC23049F058F4C13019F091
:1027D0000E94C41820CF0E94B2181DCF0E94D618A4
:1027E0001ACF0E94B01817CF8695112311F08C2FA5
:1027F0008170882309F40FCF4D2F4295469547707D
:10280000440F440F0D2F0F7010E030E020E0042E35
:1028100004C0000F111F221F331F0A94D2F760E07B
:1028200070E0CB01D4FF0FC06FE070E080E090E07B
:1028300004C0660F771F881F991F4A95D2F76095CD
:10284000709580959095C695C695C370602B712B39
:10285000822B932BC23049F058F4C13019F00E94FA
:102860008919D9CE0E947719D6CE0E949B19D3CE52
:102870000E94EC18D0CECF70112329F08C2F0E942B
:1028800012198D2F12CF8D2F0E94A0128C2F0E9413
:102890003319C1CED23F89F160F4D03FC9F0D13FA6
:1028A00029F1112309F442C001119DCE8C2F8F71A3
:1028B00021C0D33F39F1D43FA1F7112369F1CF7182
:1028C0008C2F0E94121963E08C2F0E94181BA3CE3C
:1028D000112341F0053008F09ECE8C2F8F710E949D
:1028E000561999CE063008F096CEF7CF8C2F8F71FF
:1028F000112369F20E9412198ECE8C2F8F71112331
:10290000C9F3C5CF112329F08C2F8F710E94FD18B8
:1029100082CE0E94F8187FCE81E00E942D1B0230EB
:1029200008F479CE82E00E942D1B75CE002359F069
:10293000D93309F0E9CE8FEF97EEE3E08150904074
:10294000E040E1F7DFCE8C2F8F71A1CF4C2F4F707D
:102950006D2FC6010E9409080E9428185CCE4C2FDA
:102960004F706D2FC6010E940C0855CEDF91CF919C
:102970001F910F91FF90EF90DF90CF90BF9008953F
:102980000F931F93CF93DF93EC01688179818A8144
:102990000E944D1A8C010E94AD190E94AF18B80117
:1029A000CE01DF91CF911F910F910C94A712CF937D
:1029B000DF93EC018B819C81892B29F0888199819F
:1029C00089238F3F59F4DF91CF910895CE010E9462
:1029D000C014CE01DF91CF910C948307CE010E94E9
:1029E000A8078111F3CF0E948F1A882361F38A818F
:1029F000882349F382E0DF91CF910C942D1B0E9434
:102A0000B61A0E94C61A0E94E21A0E9479200E94F9
:102A1000D01E90E080E00E945B1090E080E00C947B
:102A200071100E947F1A0C94FF140E94A61A0C9435
:102A30001115E92FE295EF70E250EE3070F4F0E0FE
:102A4000E757F24D0C941B2D803F19F020F4883E7F
:102A500020F481E00895843FE1F380E00895883E0A
:102A6000C0F3813FD1F7F5CF93FB882780F9089514
:102A70000E94431A0C941915CF93DF9300D000D015
:102A80000F92CDB7DEB70F900F900F900F900F9071
:102A9000DF91CF910895CF93DF9300D000D000D085
:102AA000CDB7DEB726960FB6F894DEBF0FBECDBF0A
:102AB000DF91CF9108951F93CF93DF93C091D301FE
:102AC00016E08091D4018C1304C0DF91CF911F9147
:102AD0000895D0E01C9FF0011D9FF00D1124EB52D2
:102AE000FE4F4081518162817381848195810E9472
:102AF0004B152196C770E5CF409105025091060213
:102B000060910702709108028091090290910A0277
:102B10000C944B151F93CF93DF9380910A02807F13
:102B2000A9F480910702882389F08091D301C09194
:102B3000D4016091050270910602A0910802B09143
:102B40000902D62FD72316E0C81304C0DF91CF9116
:102B50001F91089590E0109711F0DF3F19F401964E
:102B60008770F2CF189F9001199F300D1124F90141
:102B7000EB52FE4F41814713F2CF40814613EFCF16
:102B800042814111ECCF438154814A1B5B0B483C8D
:102B9000510528F780910A028F70806180930A02A4
:102BA000F901E652FE4F80818F708061808385E05D
:102BB00092E00E94D714DF91CF911F910C945B1586
:102BC000AF92BF92CF92DF92EF92FF920F931F933B
:102BD000CF93DF93CDB7DEB761970FB6F894DEBF22
:102BE0000FBECDBF8C0185E0F801DE011D9601907E
:102BF0000D928A95E1F7F80140815181E28085E0EC
:102C0000C82E82E0D82E60910802709109026115E9
:102C1000710509F461C19091050220910602892F86
:102C200082238F3F09F458C1A380B480F09007023B
:102C3000F501E61BF70BFF2009F4FCC080910A02A6
:102C4000382F307FE83CF10508F0B2C0311179C06F
:102C5000FE2C251323C0941321C0E1101FC08F70D8
:102C6000806180930A020E947C15C6010E94D714DD
:102C700080910A02F80185838F2D61960FB6F89432
:102C8000DEBF0FBECDBFDF91CF911F910F91FF909F
:102C9000EF90DF90CF90BF90AF900895AB2829F0D0
:102CA000842F85238F3F09F033C180E0F82FF17026
:102CB000DF2E80FF3CC08091D3012091D40136E00B
:102CC000821315C04D875E878D859E850E94431AAD
:102CD000292F22952F702230F0F0243018F59F70A4
:102CE000F1F0F8019581907FD1F4D12C1EC090E0D5
:102CF000389FF001399FF00D1124EB52FE4F618196
:102D0000651306C06081641303C062816E110FC039
:102D100001968770D5CF9F7011F0882331F3805EC4
:102D2000883018F3C8010E94D714FD2CA5CFEE20DF
:102D300009F4A2CF80910A02816080930A02F12CEB
:102D40009BCF251306C0941304C0F801EE2009F4AC
:102D50008DC04D875E878D859E850E94381588239E
:102D600019F1EE2009F180910A02803270F0209171
:102D700005023091060238872F831986BB86AA8602
:102D80008C87CE0107960E94D71486E0F801A5E053
:102D9000B2E001900D928A95E1F70E948A150E9497
:102DA0007C15FF24F39468CFC8010E94D714F9CF93
:102DB000311113C07A2DB98AA88A6E2D89890E9493
:102DC0003C1585E092E00E94D71486E0F60111924E
:102DD0008A95E9F70E947C15B2CF25130FC0941392
:102DE0000DC0E1100BC0F8018583C8010E94D71403
:102DF00086E0F60111928A95E9F73ECF4D875E870E
:102E00008D859E850E943815882371F2EE2061F22F
:102E100080910A02803208F4B8CF209105023091E7
:102E200006023A8329831B82BD82AC828E83CE0147
:102E30000196A9CFE83CF10508F041C0FE2CEE2038
:102E400009F4B2CF25132AC0941328C080910A0236
:102E500080FD1BC0982F907FC1F0F8018583903FC3
:102E600031F0982F907F905F8F70892B8583C801F8
:102E70000E94D71486E0F801A5E0B2E001900D921F
:102E80008A95E1F70E947C15F7CE86E0F801A5E06F
:102E9000B2E001900D928A95E1F7EECE4D875E8704
:102EA0008D859E850E94381581116FCF80910A0211
:102EB000816080930A02C8010E94D714DDCE7A2D6A
:102EC000B98AA88A6E2D89890E943C1586E0F60190
:102ED00011928A95E9F7D6CFEE2009F465CF4D8798
:102EE0005E878D859E850E943815F82E882309F40B
:102EF0005BCF86E0F801A5E0B2E001900D928A95E3
:102F0000E1F785E092E00E9494110E948A15BACF01
:102F100081E08E25CBCE88EC90E008951F93CF936F
:102F2000DF93CDB7DEB72C970FB6F894DEBF0FBE98
:102F3000CDBF4F83588769877A878B879C87CE015F
:102F400007960E94E015882369F08A859B85892B66
:102F500039F04F815885842F85238F3F09F071C048
:102F600016E05FC086E0FE013796DE011196019003
:102F70000D928A95E1F78A859B85892B89F38F814C
:102F8000988589238F3F61F32091D40130E0C901F6
:102F90000196877099274091D3014817190671F45B
:102FA0000E9415151092D4011092D30186E0E5E03D
:102FB000F2E0DF011D928A95E9F7D2CF96E0929F69
:102FC000D001939FB00D1124AB52BE4FFE0131963C
:102FD00001900D929A95E1F78093D4010E945B15C0
:102FE000BFCF819FC00111248B529E4F0E94E015DC
:102FF0008823E9F0E091D3011E9FF0011124EB52E8
:10300000FE4F4081518162817381848195810E944C
:103010004B158091D30190E001968770992780939A
:10302000D3018091D3019091D4018913DACF2C96EA
:103030000FB6F894DEBF0FBECDBFDF91CF911F91C9
:10304000089569857A858B859C850E944B1588CF6C
:10305000EF92FF920F931F93CF93DF938C01892BF5
:1030600081F0F12CEE24E394E8012196F80184919B
:10307000843770F4843008F05FC08130B1F0823062
:10308000A1F1DF91CF911F910F91FF90EF900895E3
:10309000853709F44CC008F43DC09CE7980F903781
:1030A00080F78F770E94301249C00E5F1F4FFE01DC
:1030B000849190E2980F983060F48770FE2D01C0E3
:1030C000FF0F8A95EAF78F2F0E94B91A0E94E21A21
:1030D00002C00E9499118F2D815030F2EFE9FFE07C
:1030E0003197F1F700C00000F7CF0E5F1F4FFE01D0
:1030F000849190E2980F983050F48770FE2D01C0B3
:10310000FF0F8A95EAF78F2F0E94BF1ADFCF0E9428
:103110003012E1CF0E5F1F4FFE01C491C150D8F2B3
:103120008FE99FE00197F1F700C00000F7CF0E5F35
:103130001F4FFE01F490CFCF0E9499118E01CBCF8B
:1031400008950C94A0180E94A118609341027093F6
:10315000420280934302909344020C94FF1408951A
:103160000C94A3180F931F930091410210914202F7
:103170002091430230914402602B712B822B932BC0
:103180001F910F910C94A3180F931F93009141026C
:103190001091420220914302309144026023712336
:1031A000822393231F910F910C94A3180F931F93C5
:1031B0000091410210914202209143023091440259
:1031C00060277127822793271F910F910C94A318D2
:1031D0000C94A0180C94E8180E94EA1860933D0221
:1031E00070933E0280933F02909340020C94FF1430
:1031F00060E070E0CB010C94EC180F931F9341E05A
:1032000050E060E070E08A019B0104C0000F111FD4
:10321000221F331F8A95D2F7C901B8011F910F9160
:103220000C94EC180F931F9341E050E060E070E0C5
:1032300004C0440F551F661F771F8A95D2F78091EF
:103240003D0290913E02A0913F02B09140028A015E
:103250009B01082B192B2A2B3B2BC901B8011F916D
:103260000F910C94EC180F931F9341E050E060E035
:1032700070E004C0440F551F661F771F8A95D2F770
:10328000CB01BA01609570958095909500913D02B3
:1032900010913E0220913F02309140026023712341
:1032A000822393231F910F910C94EC180F931F937B
:1032B00041E050E060E070E004C0440F551F661F1D
:1032C000771F8A95D2F780913D0290913E02A0919E
:1032D0003F02B09140028A019B01082719272A2743
:1032E0003B27C901B8011F910F910C94EC180F9363
:1032F0001F9300913D0210913E0220913F023091B8
:103300004002602B712B822B932B1F910F910C94F9
:10331000EC180F931F9300913D0210913E022091F3
:103320003F023091400260237123822393231F9137
:103330000F910C94EC180F931F9300913D02109184
:103340003E0220913F023091400260277127822780
:1033500093271F910F910C94EC180895990F990FD2
:10336000890F982F977041E001C0440F9A95EAF7B2
:1033700086958695869595E0899FF0011124E55FF5
:10338000FD4F30E020E070E05191DF011197CB015B
:10339000022E02C0969587950A94E2F78170819576
:1033A0008527842385278C932F5F3F4F2530310558
:1033B00059F70895990F990F890F982F977086954F
:1033C0008695869525E0829FF0011124E55FFD4FEB
:1033D00050E040E080E0219130E0092E02C03695B7
:1033E00027950A94E2F721703327042E01C0220F9B
:1033F0000A94EAF7822B4F5F5F4F4530510559F72A
:103400000895BF92CF92DF92EF92FF920F931F9396
:10341000CF93DF938C01C0903D02D0903E02E090AC
:103420003F02F09040028091410290914202A091AF
:103430004302B0914402C82AD92AEA2AFB2ACFE1E2
:10344000D0E0BC2ED701C6010C2E04C0B695A795BE
:10345000979587950A94D2F780FD0EC0219788F73B
:10346000B12C8B2DDF91CF911F910F91FF90EF9099
:10347000DF90CF90BF900895B8018C2F0E9429084B
:10348000019761F3EECFCF93DF93EC010E94011A15
:10349000BE01DF91CF910C9429081F93CF93DF9346
:1034A000EB019091D201992331F0CB01DF91CF91C3
:1034B0001F910C94431A882379F0CB010E94011AC2
:1034C000182F682FCE010E94AE19BE01812FDF9107
:1034D000CF911F910C942908CB010E94DA19182F63
:1034E000F4CF682F8091190190911A010C94551C0A
:1034F000682F8091190190911A010C94571C8091AA
:10350000190190911A010C94591C809145028595DE
:1035100085958595089580914502877008959091CD
:103520004502977081E009F480E00895809151028E
:10353000089590915102892B8093510208958095AE
:103540009091510298239093510208951092510244
:10355000089590915002892B809350020895809590
:103560009091500298239093500208951092500227
:10357000089590914F02892B80934F020895809572
:1035800090914F02982390934F02089510924F020A
:10359000089580914602089508950C94CC1A909154
:1035A0004602981721F0809346020C94CD1A089594
:1035B00080914602882329F01092460280E00C9404
:1035C000CD1A0895E0911901F0911A0180915102EC
:1035D0008083E0911901F0911A018081909150024D
:1035E000892B8083E0911901F0911A0180819091DB
:1035F0004F02892B808390914602992381F0E091BC
:103600001901F0911A018081892B80838091190121
:1036100090911A010E940D1C81110E94D81A80916C
:10362000190190911A010C94011008950C94151B26
:1036300098E0899F90011124622B609345020E94BB
:103640001219809145028595859585950C94161BD8
:103650001092450280E00C94161B909145028095D3
:10366000892380934502282F277071F4282F082E74
:10367000000C330B9217130639F0859585958595C7
:103680000E9433190C94281B08959093AB018093EA
:10369000AA010895829590E09C01220F331F220F0A
:1036A000331F2C7C95958795959587958373282B4B
:1036B00030E0C901880F991F8A7A359527952575BD
:1036C000822B089590E080E00E943D2D21E08C3E09
:1036D0009E4F09F020E0822F089582E090E00C9444
:1036E000352D83E090E00C94352DCF9384E090E06D
:1036F0000E94352DC82F81E290E00E94352D982F31
:103700008C2FCF910895CF93C92F682F84E090E03C
:103710000E94432D6C2F81E290E0CF910C94432DB9
:10372000AB01BC018FE090E00C94552DAB01BC01C6
:1037300083E190E00C94552D60E070E0CB010C9497
:10374000961B60E070E0CB010E94901B0C949C1BC8
:103750006CEE7EEF90E080E00E94612D60E082E000
:1037600090E00E94432D60E083E090E00E94432DB2
:1037700010924102109242021092430210924402AF
:1037800060E084E090E00E94432D60E081E290E000
:103790000E94432D60E085E090E00E94432D60E0B0
:1037A00086E090E00E94432D6FEF87E090E00E945A
:1037B000432D40E050E0BA0188E090E00E94552D92
:1037C00060E08DE090E00E94432D40E050E0BA01BF
:1037D00088E190E00E94552D60E087E190E00E9432
:1037E000432D40E050E0BA018CE190E00E94552D5D
:1037F00060E080E290E00E94432D40E050E0BA019A
:1038000088E190E00E94552D0C94A11B0C94A81BFC
:10381000682F8EE090E00C94432D9C012E5F3F4F6B
:10382000AC01485F5F4F80E02417350709F4089525
:10383000F90191919F019923B9F38F5FF5CF662329
:1038400049F0FC01329608962191261729F0E817D5
:10385000F907D1F780E0089581E008959C01FC010B
:1038600032969FEF80E04191461751F09F3F19F447
:10387000411101C0982F8F5F8630A9F79F3F09F44F
:103880000895290F311D97FD3A95F9016283089536
:10389000FC01329608962191261303C0DF0111978F
:1038A0001C92E817F907B9F708950C942E1C0C9494
:1038B000481C029626E0FC0111922A95E9F708952A
:1038C000089508950C94611C0E94621C8091C202AC
:1038D000843049F11092530288E190E020E40FB661
:1038E000F894A895809360000FBE2093600080E05C
:1038F0000E9401080E94621C83B7817F846083BF9D
:1039000083B7816083BF7894889583B78E7F83BFA8
:103910000FB6F894A895809160008861809360004C
:10392000109260000FBE08950895CF930E94601C0E
:103930000E943A0B0E94941CC0E08C2F0E941E0A29
:10394000811105C0CF5FC431C1F7CF91089581E0E7
:10395000FCCF08950C94A91C0E9415150E94F50F28
:103960000E9401080C94AA1C1F921FB61F921124DA
:103970008F939F93AF93BF9380915302811113C094
:103980008091B8029091B902A091BA02B091BB02A5
:103990004196A11DB11D8093B8029093B902A093E6
:1039A000BA02B093BB02BF91AF919F918F911F90CC
:1039B0001FBE1F90189582E084BD93E095BD9AEFDD
:1039C00097BD80936E0008952FB7F8948091B80248
:1039D0009091B902A091BA02B091BB022FBF089595
:1039E0002FB7F8946091B8027091B9028091BA0231
:1039F0009091BB022FBF08959C014FB7F89480911E
:103A0000B8029091B902A091BA02B091BB024FBF27
:103A1000821B930B089578941F921FB61F92112456
:103A20008F939F93AF93BF938091B8029091B90207
:103A3000A091BA02B091BB020196A11DB11D809365
:103A4000B8029093B902A093BA02B093BB02BF919F
:103A5000AF919F918F911F901FBE1F90189587E780
:103A600097E7909301088093000888E19AE00FB6E9
:103A7000F894A895809360000FBE90936000FFCFEC
:103A80000E94621B811102C00E94061C0E946D1BD5
:103A9000809352020E94751B9093BD028093BC02DA
:103AA0000E94711B682F70E090E080E00E94B018C7
:103AB00060913D0270913E0280913F0290914002E0
:103AC0000C94EA1880915A0280FF12C06091200184
:103AD00085E0689FB0011124759567957595679588
:103AE00060387105A8F561157105A1F1862F08955B
:103AF00081FF09C06091200185E0689FB001112419
:103B000075956795EDCF6091200182FD0AC0809187
:103B100059028823D1F090911F01609120018917EB
:103B200028F085E0689FB0011124DACF869FB001AC
:103B3000112485E0869F9001879F300D1124692F05
:103B400070E0C9010E94072DCBCF65E070E0CECFB9
:103B50008FE7089581E0089580915A0280FF0CC09C
:103B600060911C0170E07595679575956795611575
:103B7000710549F1862F089581FF06C060911C01EF
:103B800070E075956795F3CF60911C0182FD0BC0C5
:103B9000909158029923A1F060911B0180911C0122
:103BA000961738F0682F70E06038710500F38FE7E2
:103BB0000895899FC001112470E00E94072DF4CF61
:103BC00061E070E0D7CF81E00895803F31F40E943A
:103BD000621D819580935E020895813F19F40E94D1
:103BE000621DF8CF823F31F40E94621D819580935F
:103BF0005D020895833F19F40E94621DF8CF893F4A
:103C000029F40E94AC1D80935F0208958A3F21F43D
:103C10000E94AC1D8195F7CF8B3F31F40E94AC1D03
:103C200081958093600208958C3F19F40E94AC1D29
:103C3000F8CF843F31F480915C02816080935C0214
:103C40000895853F21F480915C028260F7CF863F22
:103C500021F480915C028460F1CF873F21F4809150
:103C60005C028860EBCF883F21F480915C02806128
:103C7000E5CF8D3F31F480915A02816080935A02E2
:103C800008958E3F21F480915A028260F7CF8F3FD2
:103C9000B9F780915A028460F1CF90915D02803F24
:103CA00059F480915E0287FF0DC010925E0291115F
:103CB0000BC01092590208C0813F81F480915E02CE
:103CC00018169CF3992381F080915F029091600215
:103CD000892B09F064C0109258020895823F49F47C
:103CE00097FFF0CF10925D0280915E028111ECCFC0
:103CF000E0CF833F19F41916ACF3E4CF20915F02B3
:103D0000893F29F41216F4F610925F02DBCF8A3F46
:103D100019F427FFD7CFF8CF209160028B3F29F409
:103D200027FFD0CF10926002CDCF8C3F19F412162E
:103D3000CCF3C8CF843F31F480915C028E7F8093B6
:103D40005C02C0CF853F21F480915C028D7FF7CF6C
:103D5000863F21F480915C028B7FF1CF873F21F475
:103D600080915C02877FEBCF883F21F480915C02D9
:103D70008F7EE5CF8D3F31F480915A028E7F809304
:103D80005A02A0CF8E3F21F480915A028D7FF7CF47
:103D90008F3F09F097CF80915A028B7FF0CF089523
:103DA0008091520283FF7EC088E892E00E949C06C8
:103DB00080915C021F928F9383E892E09F938F9390
:103DC0000E94350781E892E00E949C0680915D0286
:103DD000282F082E000C330B3F938F938EE792E031
:103DE0009F938F930E9435078CE792E00E949C0678
:103DF00080915E02282F082E000C330B3F938F9387
:103E000089E792E09F938F930E94350787E792E0BE
:103E10000E949C0680915F02282F082E000C330B15
:103E20003F938F9384E792E09F938F930E9435078F
:103E300082E792E00E949C0680916002282F082E63
:103E4000000C330B3F938F938FE692E09F938F93F9
:103E50000E9435078CE692E00E949C0680915902F0
:103E60001F928F9389E692E09F938F930E9435076C
:103E700087E692E00E949C0680915A021F928F93DF
:103E800084E692E09F938F930E94350781E692E04B
:103E90000E949C068DB79EB74C960FB6F8949EBFB5
:103EA0000FBE8DBF0E94E41C9C0190915D02809129
:103EB0005E02982B21F03093570220935602909186
:103EC0005F0280916002982B21F03093550220937D
:103ED00054028BE592E00C944D10EF92FF920F93F9
:103EE0001F93CF93DF9300D000D000D0CDB7DEB7C3
:103EF00086E0EBE5F2E0DE01119601900D928A95E5
:103F0000E1F7E0905D02F0905E0200915F02109197
:103F1000600210925D0210925E0210925F02109297
:103F200060028E2D8F2991F0809156029091570258
:103F30000E94FC1CAC0190915902992309F43FC0E6
:103F4000809121018417150608F447C0802F812B2A
:103F500091F080915402909155020E94FC1CAC019A
:103F600090915802992309F477C080911D0184171C
:103F7000150608F47FC080915D0290915E02892B46
:103F800090915F02892B90916002892B11F00E9421
:103F9000D01E86E0FE013196ABE5B2E001900D92B5
:103FA0008A95E1F726960FB6F894DEBF0FBECDBF17
:103FB000DF91CF911F910F91FF90EF900895209185
:103FC00022018AE0289F900111242417350708F068
:103FD000BDCF9F5F9093590202C09F3FD1F7EE2063
:103FE00059F00E94621D9FEF1E140CF491E0899F0E
:103FF000802D112480935D02FF2059F00E94621DE4
:104000009FEF1F140CF491E0899F802D1124809361
:104010005E0230915D02332309F498CF20915E0255
:10402000222309F493CF45EB3403C00111249923D3
:1040300059F090935D0245EB240390011124332342
:1040400039F030935E0282CF81E080935D02F3CF3E
:1040500081E080935E027ACF20911E018AE0289F42
:10406000900111242417350708F085CF9F5F9093A6
:10407000580202C09F3FD1F7002359F00E94AC1DA7
:104080009FEF10160CF491E0899F802D11248093EE
:104090005F02112359F00E94AC1D9FEF11160CF422
:1040A00091E0899F802D11248093600230915F02FE
:1040B000332309F460CF20916002222309F45BCFFF
:1040C00045EB3403C0011124992359F090935F020A
:1040D00045EB240390011124332339F0309360021F
:1040E0004ACF81E080935F02F3CF81E0809360024A
:1040F00042CF86E0EBE5F2E0DF011D928A95E9F719
:10410000109259021092580210925A0208958BEAA6
:1041100094E00E949C061F9281E08F931F9285E09D
:104120008F938DE594E09F938F930E9435070F90B6
:104130000F900F900F900F900F900895833009F417
:1041400045C028F4813061F0823049F1089585300E
:1041500009F46AC008F451C0863009F47CC008959F
:1041600080912201482F460F5527551F4F3F51057B
:1041700094F4680F60932201809122011F928F9323
:1041800086E993E09F938F930E9435070F900F90DD
:104190000F900F9008958FEF80932201EDCF8091C3
:1041A0002101482F460F5527551F4F3F510554F405
:1041B000680F60932101809121011F928F9384E801
:1041C00093E0E0CF8FEF80932101F5CF8091200124
:1041D000482F460F5527551F4F3F510554F4680F80
:1041E00060932001809120011F928F9381E793E0DB
:1041F000C9CF8FEF80932001F5CF80911F01482F09
:10420000460F5527551F4F3F510554F4680F6093D3
:104210001F0180911F011F928F938CE593E0B2CF15
:104220008FEF80931F01F5CF80911C01482F460F1F
:104230005527551F4F3F510554F4680F60931C01DB
:1042400080911C011F928F9383E493E09BCF8FEFAB
:1042500080931C01F5CF80911B01482F460F5527F5
:10426000551F4F3F510554F4680F60931B01809117
:104270001B011F928F9388E293E084CF8FEF80938E
:104280001B01F5CF8330C9F128F4813061F0823011
:1042900019F10895853009F452C008F43FC0863002
:1042A00009F45EC0089580912201681790F4861B7E
:1042B00080932201809122011F928F9389E193E0E4
:1042C0009F938F930E9435070F900F900F900F9040
:1042D000089510922201EECF80912101681750F4C9
:1042E000861B80932101809121011F928F9387E08B
:1042F00093E0E6CF10922101F6CF8091200168175C
:1043000050F4861B80932001809120011F928F938F
:1043100084EF92E0D5CF10922001F6CF80911F015B
:10432000681750F4861B80931F0180911F011F9214
:104330008F938FED92E0C4CF10921F01F6CF809142
:104340001C01681750F4861B80931C0180911C018E
:104350001F928F9386EC92E0B3CF10921C01F6CFA0
:1043600080911B01681750F4861B80931B0180917C
:104370001B011F928F938BEA92E0A2CF10921B0138
:10438000F6CFCF93C82F1F928F9380EB95E09F932A
:104390008F930E94350761E070E080E090E004C0F8
:1043A000660F771F881F991FCA95D2F70E94B01811
:1043B0000F900F900F900F90CF910C941515CF93F5
:1043C000DF938B3109F4FAC108F09CC18B3009F4FA
:1043D000B8C108F06AC1863009F4C6C148F4853016
:1043E00009F49EC18EE39AE00E949C0680E0CCC155
:1043F000873009F4CCC18830A9F78DED9AE00E948E
:104400009C068EE29AE00E949C060E94711B1F92FD
:104410008F938BE29AE09F938F930E94350789E2F6
:104420009AE00E949C060E946D1BC82F86E19AE0CC
:104430000E949C061F92CF9381E19AE09F938F93F5
:104440000E9435078FE09AE00E949C0685E09AE082
:104450000E949C068C2F81701F928F9382E09AE0BD
:104460009F938F930E94350780E09AE00E949C06FC
:1044700086EF99E00E949C06C1FB882780F91F9275
:104480008F9383EF99E09F938F930E94350781EF7D
:1044900099E00E949C0685EE99E00E949C06C2FB72
:1044A000882780F91F928F9382EE99E09F938F93D4
:1044B0000E94350780EE99E00E949C0687ED99E006
:1044C0000E949C06C3FBCC27C0F91F92CF9384EDBA
:1044D00099E09F938F930E94350782ED99E00E94A7
:1044E0009C060E94751BEC018EEB99E00E949C06D5
:1044F000DF93CF9389EB99E09F938F930E943507C9
:1045000087EB99E00E949C068EE999E00E949C0648
:104510008C2F81701F928F938BE999E09F938F93DB
:104520000E9435078DB79EB780960FB6F8949EBF50
:104530000FBE8DBF89E999E00E949C0682E899E050
:104540000E949C06C1FB882780F91F928F938FE7FA
:1045500099E09F938F930E9435078DE799E00E9421
:104560009C068BE699E00E949C068D2F81701F921D
:104570008F9388E699E09F938F930E94350786E694
:1045800099E00E949C0684E599E00E949C06D695DD
:10459000D1701F92DF9381E599E09F938F930E94E2
:1045A00035078FE499E00E949C068DE399E00E9414
:1045B0009C06C2FB882780F91F928F938AE399E0BB
:1045C0009F938F930E94350788E399E00E949C0691
:1045D00086E299E00E949C06C3FB882780F91F921F
:1045E0008F9383E299E09F938F930E94350781E236
:1045F00099E00E949C0687E199E00E949C06C4FB1A
:10460000882780F91F928F9384E199E09F938F937D
:104610000E94350782E199E00E949C0680E099E0C3
:104620000E949C06C5FB882780F91F928F938DEF0F
:1046300098E09F938F930E9435078BEF98E00E943C
:104640009C068FED98E00E949C06C6FB882780F9A7
:104650001F928F938CED98E09F938F930E94350764
:104660008DB79EB780960FB6F8949EBF0FBE8DBFD4
:104670008AED98E00E949C0682ED98E00E949C06DC
:10468000C7FBCC27C0F91F92CF938FEC98E09F9384
:104690008F930E9435078DEC98E00E949C060F9046
:1046A0000F900F900F9081E06FC0803109F49EC091
:1046B00080F48E3009F096CE90915202892F8B7F34
:1046C00092FF84608093520282FF8DC089E69AE057
:1046D00081C0863109F49AC0893109F083CE84EF14
:1046E00096E00E949C068BEB96E00E949C068FE76A
:1046F00096E00E949C0689E496E00E949C068EE16A
:1047000096E021C08A3249F190F4873211F128F401
:104710008E3108F467CE8D511DC0893209F062CE0A
:104720008CEA9AE00E949C060E949907BCCF8334D1
:1047300068F48A3308F0A1C0853359F0883309F052
:1047400051CE8AE297E00E949C06ADCF833409F0F7
:1047500049CE80E00E94C121A6CF8CEC9AE00E9455
:104760009C060E94061C9FCF80915202807F8093FE
:10477000520283E097E00E949C0688EC9AE00E9437
:104780009C0681E080936202DF91CF910895909121
:104790005202892F8E7F90FF81608093520280FFAA
:1047A00003C080EA9AE0CFCF83E99AE00E949C069A
:1047B00080915202817F8093520275CF9091520274
:1047C000892F8D7F91FF82608093520281FF08C004
:1047D00086E89AE00E949C06809152028160EBCFAD
:1047E00088E79AE0B0CF89E59AE0ADCF9091520288
:1047F000892F877F93FF88608093520283FF03C0D5
:104800008DE49AE0E7CF80E49AE09DCF80E196E0E6
:104810000E949C060E94F50F1F928F9386EF95E0F1
:104820009F938F930E94350780912D011F928F9344
:104830008FED95E09F938F930E94350780916F02D3
:104840001F928F938CEC95E09F938F930E94350776
:104850000E94F01C9F938F937F936F9385EB95E05D
:104860009F938F930E9435078DB79EB742960FB6E0
:10487000F8949EBF0FBE8DBF16CF89536BCF80E0DB
:1048800008950C943F248E518A3030F4E82FF0E0E4
:10489000E057FE4F8081089580E00895CF93C82FA0
:1048A000809162028130C1F0882339F0823009F4AE
:1048B00047C01092620280E00DC00E94961A8232B8
:1048C000D1F78C2F0E943F2481111BC08C2F0E9496
:1048D000DF218170CF9108950E94961A823289F368
:1048E0008C2F0E94412481111BC0C431D9F060F487
:1048F000CB3071F0C031D1F086EA95E00E949C0681
:1049000013C081E090E0E5CFC93261F0C833A1F770
:1049100083E097E00E949C068CEA95E00E949C064A
:1049200081E0D7CF1092620280E0D3CF0E9487202F
:1049300088EA95E00E949C0682E080936202F0CFB4
:10494000C432C8F4CE3108F0BEC0CB30E1F040F440
:10495000C73009F4CCC08AE494E00E949C0626C0CB
:10496000C331C1F1C431B9F780916102882351F19B
:10497000109261020AC0CB3409F4B7C0C8F4C9323E
:1049800099F3C83341F70E94872080916102882300
:1049900009F4C4C01F928F9384E494E09F938F9393
:1049A0000E9435070F900F900F900F9081E092CFEB
:1049B000C13509F494C0C23509F48BC0CE3459F620
:1049C0006AE08EC089E594E00E949C0681E08093B5
:1049D000620280CF83E394E00E949C0681E294E02F
:1049E0000E949C06809122011F928F938EE194E099
:1049F0009F938F930E9435078CE194E00E949C0660
:104A00008AE094E00E949C06809121011F928F937E
:104A100087E094E09F938F930E94350785E094E0B0
:104A20000E949C0686EF93E00E949C0680912001E4
:104A30001F928F9383EF93E09F938F930E9435078C
:104A400081EF93E00E949C0680EE93E00E949C061A
:104A500080911F011F928F938DED93E09F938F9311
:104A60000E9435078BED93E00E949C0686EC93E054
:104A70000E949C0680911C011F928F9383EC93E00F
:104A80009F938F930E94350781EC93E00E949C06D0
:104A90008AEA93E00E949C0680911B011F928F93EB
:104AA00087EA93E09F938F930E94350785EA93E00E
:104AB0000E949C068DB79EB748960FB6F8949EBF8D
:104AC0000FBE8DBF62CF8C2F0E9443248093610262
:104AD0005CCF61E0809161020E949E2056CF61E030
:104AE000809161020E94422150CF6AE0F3CF8EE1B3
:104AF0008093220182E3809321018AE08093200148
:104B000084E180931F0188E080931C0188E28093F8
:104B10001B018CE494E00E949C0637CF81E494E072
:104B20001CCF80916E0208959FB7F8941092650291
:104B30009FBF9091C202943009F048C02091E900D3
:104B40002F703091EC00932F917030FD90E8922BF4
:104B500023E02093E9002091EB0020FF34C0209156
:104B6000EE0027FF30C020916302222321F0209124
:104B7000E80025FF28C01092630226E03091E8008B
:104B800035FF14C08093F1008091E80085FD27C0B7
:104B90008091E80080FFFCCF8091E8008E778093C1
:104BA000E8009F709093E90080E008953091C20280
:104BB000343049F43091EB0035FD05C0215041F40B
:104BC00081E0809363029F709093E9008FEF0895D6
:104BD000EFE9FFE03197F1F700C00000CFCF8FB7CA
:104BE000F89421E0209365028FBFDBCFCF93DF9352
:104BF00000D00F92CDB7DEB79091C202943019F574
:104C000089837B836A8382E08093E9008FEF9091B0
:104C1000E800815095FD06C095ED9A95F1F70000EA
:104C20008111F5CF8091E80085FF0DC050E040E094
:104C300063E070E0CE0101960E946B288091E8004D
:104C40008E778093E8000F900F900F90DF91CF91B7
:104C50000895BC0184E00C94F625BC0183E00C941B
:104C6000F6259C0182E08093E9009FEF8091E800A7
:104C7000915085FD06C085ED8A95F1F700009111F0
:104C8000F5CF8091E80085FF0CC050E040E066E081
:104C900070E0C9010E946B288091E8008E778093B4
:104CA000E8000895CF93DF93EC0181E08093E90061
:104CB0008FEF9091E800815095FD06C095ED9A9593
:104CC000F1F700008111F5CF8091E80085FF14C055
:104CD00050E040E068E070E0CE010E946B288091D7
:104CE000E8008E778093E80088E0FE01A6E6B2E057
:104CF00001900D928A95E1F7DF91CF9108958DE0B3
:104D00009BE00E949C068091C102811109C00E9413
:104D1000FB290E94582A8091E20084608093E2007F
:104D2000089589E09BE00E949C061092C1020895BC
:104D300085E09BE00C949C0681E09BE00C949C0633
:104D40008DEF9AE00E949C060C94AC1C20916402AA
:104D50002F5F822F62E30E94FB2C992319F020938E
:104D60006402089510926402809165028823F1F034
:104D70008091C2028430C1F49091E9009F7020912B
:104D8000EC00822F817020FD80E8892B93E09093C6
:104D9000E9009091EB0090FF04C09091EE0097FD28
:104DA00008C08F708093E9001092650208951092F8
:104DB000F1009091E80095FDFACF9091E80090FF06
:104DC000F0CF9091E8009E779093E800EACF42E020
:104DD00061EC81E00E94772942E261EC82E00E946E
:104DE000772942E261EC83E00C9477298091C40238
:104DF000833009F45FC030F48130C1F1823009F4AE
:104E00009BC008958A3009F487C08B3009F46DC0C7
:104E1000893009F04EC08091C302813209F049C047
:104E20008091C7029091C802029708F042C0809119
:104E3000E800877F8093E8008091E80082FF35C01A
:104E40009091F3008091F200029729F48091F10093
:104E50008B7F813021F48091F10080936E028091EC
:104E6000E8008B778093E8000C94AB298091C30213
:104E7000813AF9F48091E800877F8093E80080917F
:104E8000C7029091C802892B61F468E086E692E03F
:104E900070E00E94BA288091E8008B778093E80048
:104EA000089560E090E080E0F3CF8091C20281112C
:104EB000C3CF08958091C302813AD9F78091C70288
:104EC0009091C802892BA9F78091E800877F809391
:104ED000E8008091E80080FFFCCF80912D01809355
:104EE000F1008091E8008E77BDCF8091C3028132BE
:104EF00001F78091C7029091C802892BD1F6809169
:104F0000E800877F8093E8000E94AB298091C5026A
:104F100080932D010C9415158091C302813249F6BE
:104F20008091E800877F8093E8000E94AB29809100
:104F3000C60280936F0208958091C302813A09F0FE
:104F4000B8CF8091E800877F8093E8008091E800E7
:104F500080FFFCCF80916F02C2CF84B7877F84BF70
:104F60000FB6F894A89580916000886180936000E6
:104F7000109260000FBE80E890E00FB6F894809326
:104F80006100909361000FBE0E9495100E94FB2962
:104F90000E94582A8091E20084608093E20084E9B4
:104FA00095E20E94451B78940E94E02C0E949F107D
:104FB00083E291E00E94F00F8CEE9AE00E949C0642
:104FC0008091C202853039F00E94CF100E949D105E
:104FD0000E949E10F5CF88EE9AE00E949C060E94E7
:104FE000641C8091C002882359F30E94951C882379
:104FF00039F30E945528E4CF0C94FE27292F33273C
:105000002330310521F168F42130310509F443C022
:105010002230310509F444C090E080E030E020E027
:1050200026C02132310551F122323105A9F7633012
:10503000710590F7FB01EE0FFF1FE356FE4F208135
:10504000318166567E4FFB01808190E010C0992728
:105050008130910581F0009729F00297E9F6E1E1AE
:10506000FBE002C0E9E3FBE0849190E09F01FA01DC
:10507000318320830895E7E2FBE0F6CF63307105CA
:1050800058F6660F771FFB01ED55FE4F20813181E9
:1050900089E090E0ECCF82E190E028E93BE0E7CFC7
:1050A0008BE590E02DE33BE0E2CF80E189BD82E13A
:1050B00089BD09B400FEFDCF8091D8008F7D80931B
:1050C000D8008091E00082608093E0008091E00051
:1050D00081FDFCCF0895AF92BF92CF92DF92FF92F5
:1050E0000F931F93CF93DF936C01EB018A010E9412
:1050F000CA29F82E811123C00115110539F0F801D4
:1051000080819181C81BD90BC80ED91EB12CA12C4E
:105110002097A9F08091E80085FD22C08091E800E9
:105120008E778093E80001151105A1F0F8018081C8
:105130009181A80EB91EB182A08285E0F82E8F2D34
:10514000DF91CF911F910F91FF90DF90CF90BF9093
:10515000AF9008950E94CA298823D1F2F82EEFCF8C
:10516000F60181916F018093F1002197FFEFAF1A53
:10517000BF0ACECFFC018091C9029091CA02861766
:105180009707A0F06115710529F49091E8009E77CA
:105190009093E80090E06115710551F4911108C0F9
:1051A0008091E80082FF34C080E00895BC01F2CF16
:1051B0008091C2028823C1F18530C1F18091E8005D
:1051C00083FD30C08091E80082FDEACF8091E80045
:1051D00080FFE1CF8091F3002091F200382F61151C
:1051E000710519F02830310558F091E0283031056B
:1051F00009F090E02091E8002E772093E800CBCFD3
:1052000081918093F100615071092F5F3F4FE7CF8B
:105210008091C202882341F0853041F08091E800FE
:1052200083FFBECF81E0089582E0089583E0089572
:10523000FC018091C9029091CA0286179707A0F0DD
:105240006115710529F48091E8008E778093E8005C
:1052500090E06115710551F4911108C08091E8004A
:1052600082FF35C080E00895BC01F2CF8091C20278
:105270008823C9F18530C9F18091E80083FD31C0F0
:105280008091E80082FDEACF8091E80080FFE1CFC5
:105290008091F3002091F200382F6115710519F00B
:1052A0002830310558F091E02830310509F090E0C0
:1052B0008091E8008E778093E800CBCF8491809333
:1052C000F1003196615071092F5F3F4FE6CF809119
:1052D000C202882341F0853041F08091E80083FFCD
:1052E000BDCF81E0089582E0089583E00895982F6E
:1052F000973028F08F708093E90081E008959093B3
:10530000E900242F762F50E0981731F07091EC00CF
:105310002091ED005091F00021FD02C09F5FE8CF89
:105320003091EB003E7F3093EB003091ED003D7FFC
:105330003093ED003091EB0031603093EB007093CF
:10534000EC002093ED005093F0002091EE0027FD3B
:10535000E5CF80E008958091C30287FF13C080915C
:10536000E80082FF06C08091E8008B778093E80018
:1053700004C08091C2028111F2CF08958091C202CF
:105380008823D9F38091E80080FFF8CF8091E8006E
:105390008E77ECCF2091E4003091E50095E6A901ED
:1053A0002091EC00822F817020FF06C08091E800E0
:1053B00080FF06C080E008952091E80022FD1AC019
:1053C0008091C202882389F0853089F08091EB00BA
:1053D00085FD0FC02091E4003091E500421753078E
:1053E000F9F29150E1F684E0089582E0089583E0B7
:1053F000089581E008950E94692A0E94712AE0EED2
:10540000F0E0808181608083E8EDF0E080818F773B
:10541000808319BCA7EDB0E08C918E7F8C93808146
:105420008F7E80831092C10208950F931F93CF93B4
:10543000DF930E94692A0E94712AC8EDD0E088811A
:105440008F77888388818068888388818F7D88832F
:1054500019BC1092C2021092BE021092C0021092A9
:10546000BF0200EE10E0F80180818B7F808388818D
:105470008160888342E060E080E00E947729E1EE6D
:10548000F0E080818E7F8083E2EEF0E080818160B9
:105490008083808188608083F80180818E7F808313
:1054A000888180618883DF91CF911F910F9108954A
:1054B000E8EDF0E080818F7E8083E7EDF0E0808191
:1054C0008160808384E082BF81E08093C1020C947C
:1054D000152AE8EDF0E080818E7F80831092E20053
:1054E00008951092DA001092E10008951F920F9231
:1054F0000FB60F9211242F933F934F935F936F93A7
:105500007F938F939F93AF93BF93EF93FF9380917C
:10551000E10082FF0BC08091E20082FF07C0809112
:10552000E1008B7F8093E1000E94A6268091DA0043
:1055300080FF19C08091D80080FF15C08091DA00EB
:105540008E7F8093DA008091D90080FF96C080E141
:1055500089BD82E189BD09B400FEFDCF81E0809361
:10556000C2020E947F268091E10080FF19C08091D5
:10557000E20080FF15C08091E2008E7F8093E20000
:105580008091E20080618093E2008091D800806287
:105590008093D80019BC85E08093C2020E949C26AB
:1055A0008091E10084FF2BC08091E20084FF27C03E
:1055B00080E189BD82E189BD89B5982F917080FF16
:1055C000FBCF8091D8008F7D8093D8008091E1003F
:1055D0008F7E8093E1008091E2008F7E8093E200D5
:1055E0008091E20081608093E2008091BE02882376
:1055F00009F449C084E08093C2020E94A0268091F1
:10560000E10083FF29C08091E20083FF25C08091E3
:10561000E100877F8093E10082E08093C2021092D4
:10562000BE028091E1008E7F8093E1008091E200D4
:105630008E7F8093E2008091E20080618093E2009F
:1056400042E060E080E00E9477298091F00088606D
:105650008093F0000E949826FF91EF91BF91AF9147
:105660009F918F917F916F915F914F913F912F917A
:105670000F900FBE0F901F90189519BC1092C20288
:105680000E94912670CF8091E30087FD93E0909374
:10569000C202B3CF1F920F920FB60F9211242F9315
:1056A0003F934F935F936F937F938F939F93AF93AA
:1056B000BF93CF93DF93EF93FF93D091E900DF7017
:1056C0008091EC00C82FC17080FDC0E81092E90005
:1056D0008091F000877F8093F00078940E948E2B59
:1056E0001092E9008091F00088608093F000CD2B4B
:1056F000CF70C093E900FF91EF91DF91CF91BF91FF
:10570000AF919F918F917F916F915F914F913F9159
:105710002F910F900FBE0F901F9018951F93CF934E
:10572000DF93CDB7DEB7AA970FB6F894DEBF0FBEF2
:10573000CDBF83EC92E02091F100FC012193CF01D9
:10574000F2E08B3C9F07B9F70E94F6268091E800B3
:1057500083FF1EC18091C3029091C4029A3008F069
:1057600017C1E92FF0E0E956F24D0C941B2D80385B
:1057700099F0823809F00CC18091C7028F70873090
:1057800008F006C18093E9008091EB0085FB882733
:1057900080F91092E90006C08091BF029091C0028A
:1057A000911182609091E800977F9093E800809338
:1057B000F1001092F1008091E8008E77E5C0882317
:1057C00009F4D3C0823009F0E3C08091C502811191
:1057D000D6C08091C7028F702FEF280F263008F0B7
:1057E000D7C08093E9002091EB0020FFC8C0933020
:1057F00031F48091EB0080628093EB00C0C0909107
:10580000EB0090619093EB0021E030E001C0220FAB
:105810008A95EAF72093EA001092EA008091EB0063
:105820008860EACF8111B4C01091C5021F778091C2
:10583000E3008078812B8093E3008091E800877FEC
:105840008093E8000E94AB298091E80080FFFCCFA4
:105850008091E30080688093E30082E0111183E08F
:105860008093C20295C08058823008F091C0809128
:10587000C5029091C6028C3D23E09207A1F583E01A
:105880008A838AE289834FB7F894DE01139620E079
:105890003EE051E2E32FF0E050935700E49120FF07
:1058A00003C0E295EF703F5FEF708E2F90E0EA301B
:1058B000C0F0C7968D939D932F5F243159F74FBF4A
:1058C0008091E800877F8093E8006AE270E0CE0173
:1058D00001960E94BA288091E8008B778093E800B7
:1058E00057C0C096E7CF6091C7027091C802AE0161
:1058F0004F5F5F4F0E94FC27BC01892B09F448C011
:105900009091E800977F9093E80089819A810E94A6
:105910001829E1CF8038E1F58091E800877F8093F6
:10592000E8008091BE028093F10045CF811130C024
:105930009091C502923060F58091E800877F809356
:10594000E8009093BE020E94AB298091BE0288239A
:1059500011F084E005C08091E30087FDFACF81E07B
:105960008093C2020E94E72613C08091C502813055
:1059700079F481E0933009F080E08093C0021092C6
:10598000E9008091E800877F8093E8000E94AB29BE
:105990008091E80083FF0AC08091E800877F8093B0
:1059A000E8008091EB0080628093EB00AA960FB62E
:1059B000F894DEBF0FBECDBFDF91CF911F91089548
:1059C000CF938091C2028823A1F0C091E900CF70EB
:1059D0009091EC00892F817090FD80E8C82B109287
:1059E000E9008091E80083FD0E948E2BCF70C09368
:1059F000E900CF910895991B79E004C0991F96178B
:105A000008F0961B881F7A95C9F78095089597FB33
:105A1000072E16F4009407D077FD09D00E94212D9F
:105A200007FC05D03EF4909581959F4F08957095A1
:105A300061957F4F0895EE0FFF1F0590F491E02DC3
:105A40000994AA1BBB1B51E107C0AA1FBB1FA617C5
:105A5000B70710F0A61BB70B881F991F5A95A9F717
:105A600080959095BC01CD010895F999FECF92BD26
:105A700081BDF89A992780B50895A8E1B0E042E089
:105A800050E00C94692D262FF999FECF92BD81BD6F
:105A9000F89A019700B4021639F01FBA20BD0FB66C
:105AA000F894FA9AF99A0FBE08950396272F0E9448
:105AB000442D0E94432D252F0E94442D242F0C9409
:105AC000442D0196272F0E94442D0C94432DDC0178
:105AD000CB01FC01F999FECF06C0F2BDE1BDF89AF9
